:1000000000000020BD0400005F670000656700007D
:100010006B67000071670000776700000000000058
:100020000000000000000000000000002D0500009E
:100030007D67000000000000D305000033060000CB
:100040001D6600002B660000396600004766000050
:100050005566000063660000716600007F66000060
:100060008D6600009B660000A9660000B766000070
:10007000C5660000D3660000E1660000EF66000080
:10008000FD66000083670000896700008F6700003D
:10009000956700009B670000A1670000A76700004C
:1000A000AD670000B3670000B9670000BF670000DC
:1000B000C5670000CB670000D16700000B67000038
:1000C000D767000019670000DD67000027670000A0
:1000D000E367000035670000E9670000EF67000094
:1000E000F5670000FB67000001680000076800007A
:1000F0000D68000013680000196800001F68000008
:10010000CD040000CD040000CD040000CD040000AB
:10011000256800002B680000316800003768000087
:100120003D68000043680000496800004F68000017
:10013000556800005B6800006168000067680000A7
:100140006D68000073680000436700007968000074
:10015000516700007F680000856800008B68000020
:1001600091680000976800009D680000A368000087
:10017000A9680000AF680000B5680000BB68000017
:10018000C1680000CD040000CD040000CD040000D3
:10019000CD040000CD040000CD040000CD0400001B
:1001A000CD040000CD040000CD040000CD0400000B
:1001B000CD040000CD040000CD040000CD040000FB
:1001C000CD040000CD040000CD040000CD040000EB
:1003F000CD040000CD040000CD040000FFFFFFFF8E
:10040000FFFFFFFFFFFFFFFFFFFFFFFFFEFFFFFFFD
:10044000A3F5803A704700BF174B002B08BF134B32
:100450009D46FFF7F5FF00218B460F461348144ACF
:10046000121A0DF067FB0E4B002B00D098470D4B76
:10047000002B00D098470020002104000D000D48FB
:10048000002802D00C480BF05DFB0DF093FC20001F
:10049000290002F0F3FB0BF05BFB00BF000008003B
:1004A00000000000496A000000000020E00B00206E
:1004B000B059002045BB0000FDDD000072B605F01C
:1004C000CBFC05F061FC62B6FFF7BEFFFFF7FEBF95
:1004D00080F309887047EFF309807047684680F31E
:1004E00009885A480078C00714BF0220032080F30F
:1004F00014887047DFF858C1EFF305831B0618BF57
:100500006047EFF31483DB0708BF604700DF7047E5
:10051000DFF840C1EFF305831B0618BF6047EFF318
:100520001483DB0708BF604700DF7047EFF30980E3
:10053000816911F8021CE1BB90E80F1010B5E0478B
:10054000BDE81040EFF3098C8CE80700424B93E8BC
:100550000600914208BF704741B91EF0100F16D136
:100560003E49086820F00100086010E01EF0100FFE
:1005700006BF2CED108A0120002081F825002CE90F
:10058000F00FC1F828C00CB407F0E6FC0CBC1A60F0
:10059000D2F828C0BCE8F00F92F8250000280EBF62
:1005A0006FF0020E6FF0120EBCEC108A8CF309880B
:1005B000704710B52A4A1268914209D8294C54F85C
:1005C000214090E80F10A047EFF3098C8CE80F0052
:1005D00010BD10B507F032FCBDE810401E4B93E88B
:1005E0000600914208BF7047EFF3098C1EF0100F10
:1005F00006BF2CED108A0120002081F825002CE98F
:10060000F00FC1F828C00CB407F0A6FC0CBC1A60AF
:10061000D2F828C0BCE8F00F92F8250000280EBFE1
:100620006FF0020E6FF0120EBCEC108A8CF309888A
:10063000704710B507F072FCFFF7CEBF10B507F09A
:100640006BFC07F06BFCFFF7C7BF00003CEE00003F
:10065000C9770000E57700007459002034EF00E00E
:1006600000000000FCFFFFFF81F0004102E000BF3E
:1006700083F0004330B54FEA41044FEA430594EA62
:10068000050F08BF90EA020F1FBF54EA000C55EA9D
:10069000020C7FEA645C7FEA655C00F0E2804FEA6E
:1006A0005454D4EB5555B8BF6D420CDD2C4480EA50
:1006B000020281EA030382EA000083EA010180EA80
:1006C000020281EA0303362D88BF30BD11F0004FCE
:1006D0004FEA01314FF4801C4CEA113102D0404204
:1006E00061EB410113F0004F4FEA03334CEA13333F
:1006F00002D0524263EB430394EA050F00F0A78057
:10070000A4F10104D5F1200E0DDB02FA0EFC22FA51
:1007100005F2801841F1000103FA0EF2801843FA45
:1007200005F359410EE0A5F120050EF1200E012A36
:1007300003FA0EFC28BF4CF0020C43FA05F3C01874
:1007400051EBE37101F0004507D54FF0000EDCF1ED
:10075000000C7EEB00006EEB0101B1F5801F1BD396
:10076000B1F5001F0CD349085FEA30004FEA3C0C9A
:1007700004F101044FEA445212F5800F80F09A8090
:10078000BCF1004F08BF5FEA500C50F1000041EB94
:10079000045141EA050130BD5FEA4C0C404141EB98
:1007A0000101013C28BFB1F5801FE9D291F0000F93
:1007B00004BF01460020B1FA81F308BF2033A3F142
:1007C0000B03B3F120020CDA0C3208DD02F1140C39
:1007D000C2F10C0201FA0CF021FA02F10CE002F174
:1007E0001402D8BFC2F1200C01FA02F120FA0CFC6D
:1007F000DCBF41EA0C019040E41AA2BF01EB0451B6
:10080000294330BD6FEA04041F3C1CDA0C340EDCB3
:1008100004F11404C4F1200220FA04F001FA02F3F6
:1008200040EA030021FA04F345EA030130BDC4F1B4
:100830000C04C4F1200220FA02F001FA04F340EAA9
:100840000300294630BD21FA04F0294630BD94F05A
:10085000000F83F4801306BF81F480110134013D41
:100860004EE77FEA645C18BF7FEA655C29D094EAB2
:10087000050F08BF90EA020F05D054EA000C04BF30
:100880001946104630BD91EA030F1EBF002100201B
:1008900030BD5FEA545C05D14000494128BF41F0BA
:1008A000004130BD14F580043CBF01F5801130BD1E
:1008B00001F0004545F0FE4141F470014FF00000A9
:1008C00030BD7FEA645C1ABF194610467FEA655C5A
:1008D0001CBF0B46024650EA013406BF52EA0335FC
:1008E00091EA030F41F4002130BD00BF90F0000FEA
:1008F00004BF0021704730B54FF4806404F1320426
:100900004FF000054FF0000150E700BF90F0000FDE
:1009100004BF0021704730B54FF4806404F1320405
:1009200010F0004548BF40424FF000013EE700BFD5
:1009300042004FEAE2014FEA31014FEA02701FBF65
:1009400012F07F4393F07F4F81F06051704732F097
:100950007F4208BF704793F07F4F04BF41F40021EE
:10096000704730B54FF4607401F0004521F000414C
:100970001CE700BF50EA010208BF704730B54FF0D6
:1009800000050AE050EA010208BF704730B511F0D7
:10099000004502D5404261EB41014FF4806404F10F
:1009A00032045FEA915C3FF4D8AE4FF003025FEA95
:1009B000DC0C18BF03325FEADC0C18BF033202EB19
:1009C000DC02C2F1200300FA03FC20FA02F001FA73
:1009D00003FE40EA0E0021FA02F11444BDE600BF16
:1009E00070B54FF0FF0C4CF4E06C1CEA11541DBFC5
:1009F0001CEA135594EA0C0F95EA0C0F00F0DEF890
:100A00002C4481EA030621EA4C5123EA4C5350EA74
:100A1000013518BF52EA033541F4801143F48013C5
:100A200038D0A0FB02CE4FF00005E1FB02E506F056
:100A30000042E0FB03E54FF00006E1FB03569CF0AB
:100A4000000F18BF4EF0010EA4F1FF04B6F5007FB1
:100A500064F5407404D25FEA4E0E6D4146EB060623
:100A600042EAC62141EA55514FEAC52040EA5E50AC
:100A70004FEACE2EB4F1FD0C88BFBCF5E06F1ED856
:100A8000BEF1004F08BF5FEA500E50F1000041EB8D
:100A9000045170BD06F0004646EA010140EA02003A
:100AA00081EA0301B4EB5C04C2BFD4EB0C0541EA5C
:100AB000045170BD41F480114FF0000E013C00F371
:100AC000AB8014F1360FDEBF002001F0004170BD95
:100AD000C4F10004203C35DA0C341BDC04F11404AE
:100AE000C4F1200500FA05F320FA04F001FA05F23A
:100AF00040EA020001F0004221F0004110EBD37007
:100B000021FA04F642EB06015EEA430E08BF20EA32
:100B1000D37070BDC4F10C04C4F1200500FA04F3D5
:100B200020FA05F001FA04F240EA020001F0004167
:100B300010EBD37041F100015EEA430E08BF20EADA
:100B4000D37070BDC4F1200500FA05F24EEA020E22
:100B500020FA04F301FA05F243EA020321FA04F051
:100B600001F0004121FA04F220EA020000EBD37008
:100B70005EEA430E08BF20EAD37070BD94F0000F08
:100B80000FD101F00046400041EB010111F4801F3C
:100B900008BF013CF7D041EA060195F0000F18BFED
:100BA000704703F00046520043EB030313F4801F29
:100BB00008BF013DF7D043EA0603704794EA0C0FE3
:100BC0000CEA135518BF95EA0C0F0CD050EA4106F9
:100BD00018BF52EA4306D1D181EA030101F0004176
:100BE0004FF0000070BD50EA410606BF104619469E
:100BF00052EA430619D094EA0C0F02D150EA0136AA
:100C000013D195EA0C0F05D152EA03361CBF1046EA
:100C100019460AD181EA030101F0004141F0FE4189
:100C200041F470014FF0000070BD41F0FE4141F40D
:100C3000780170BD70B54FF0FF0C4CF4E06C1CEA0D
:100C400011541DBF1CEA135594EA0C0F95EA0C0FC2
:100C500000F0A7F8A4EB050481EA030E52EA03357D
:100C60004FEA013100F088804FEA03334FF080559E
:100C700045EA131343EA12634FEA022245EA1115CB
:100C800045EA10654FEA00260EF000419D4208BF7C
:100C9000964244F1FD0404F5407402D25B084FEA29
:100CA0003202B61A65EB03055B084FEA32024FF4D5
:100CB00080104FF4002CB6EB020E75EB030E22BF32
:100CC000B61A754640EA0C005B084FEA3202B6EBF2
:100CD000020E75EB030E22BFB61A754640EA5C00A1
:100CE0005B084FEA3202B6EB020E75EB030E22BF31
:100CF000B61A754640EA9C005B084FEA3202B6EB32
:100D0000020E75EB030E22BFB61A754640EADC00F0
:100D100055EA060E18D04FEA051545EA16754FEA52
:100D200006164FEAC30343EA52734FEAC2025FEA70
:100D30001C1CC0D111F4801F0BD141EA00014FF0FF
:100D400000004FF0004CB6E711F4801F04BF0143D0
:100D50000020B4F1FD0C88BFBCF5E06F3FF6AFAEEC
:100D6000B5EB030C04BFB6EB020C5FEA500C50F17C
:100D7000000041EB045170BD0EF0004E4EEA1131FF
:100D800014EB5C04C2BFD4EB0C0541EA045170BD06
:100D900041F480114FF0000E013C90E645EA060E4A
:100DA0008DE60CEA135594EA0C0F08BF95EA0C0F78
:100DB0003FF43BAF94EA0C0F0AD150EA01347FF4C0
:100DC00034AF95EA0C0F7FF425AF104619462CE797
:100DD00095EA0C0F06D152EA03353FF4FDAE1046FA
:100DE000194622E750EA410618BF52EA43067FF44B
:100DF000C5AE50EA41047FF40DAF52EA43057FF4DB
:100E0000EBAE12E74FF0FF3C06E000BF4FF0010CE5
:100E100002E000BF4FF0010C4DF804CD4FEA410C49
:100E20007FEA6C5C4FEA430C18BF7FEA6C5C1BD016
:100E300001B050EA410C0CBF52EA430C91EA030F97
:100E400002BF90EA020F0020704710F1000F91EAF4
:100E5000030F58BF994208BF90422CBFD8176FEAC2
:100E6000E37040F0010070474FEA410C7FEA6C5C90
:100E700002D150EA013C07D14FEA430C7FEA6C5C97
:100E8000D6D152EA033CD3D05DF8040B704700BFC3
:100E90008446104662468C461946634600E000BF11
:100EA00001B5FFF7B7FF002848BF10F1000F01BDE3
:100EB0004DF808EDFFF7F4FF0CBF012000205DF8AE
:100EC00008FB00BF4DF808EDFFF7EAFF34BF012033
:100ED00000205DF808FB00BF4DF808EDFFF7E0FFCC
:100EE00094BF012000205DF808FB00BF4DF808ED1D
:100EF000FFF7CEFF94BF012000205DF808FB00BF84
:100F00004DF808EDFFF7C4FF34BF012000205DF865
:100F100008FB00BF4FEA410C7FEA6C5C02D150EA4B
:100F2000013C0AD14FEA430C7FEA6C5C02D152EAE1
:100F3000033C02D14FF0000070474FF001007047B2
:100F40004FEA410212F5001215D211D56FF47873F1
:100F5000B3EB625212D94FEAC12343F0004343EA94
:100F6000505311F0004F23FA02F018BF404270476F
:100F70004FF00000704750EA013005D111F00040F9
:100F800008BF6FF0004070474FF00000704700BF8F
:100F90004A0011D212F5001211D20DD56FF47873F8
:100FA000B3EB62520ED44FEAC12343F0004343EA4D
:100FB000505323FA02F070474FF00000704750EA98
:100FC000013002D14FF0FF3070474FF00000704702
:100FD00053B94AB9002908BF00281CBF4FF0FF31A0
:100FE0004FF0FF3000F0E2B8ADF1080C6DE904CE2F
:100FF00009F0BEFDDDF804E0DDE9022304B070472E
:1010000000F1340191E838009C46A6464CF8045D96
:1010100090E8FF0FE54600BD90EC210B704700BF44
:1010200080EC210B704700BF90EC200B704700BF95
:1010300080EC200B704700BFD0EC200B704700BF46
:10104000C0EC200B704700BFF0EC0201F0EC021185
:10105000F0EC0221F0EC0231F0EC0241F0EC025134
:10106000F0EC0261F0EC0271F0EC0281F0EC029124
:10107000F0EC02A1F0EC02B1F0EC02C1F0EC02D114
:10108000F0EC02E1F0EC02F1704700BFE0EC02018D
:10109000E0EC0211E0EC0221E0EC0231E0EC024174
:1010A000E0EC0251E0EC0261E0EC0271E0EC028164
:1010B000E0EC0291E0EC02A1E0EC02B1E0EC02C154
:1010C000E0EC02D1E0EC02E1E0EC02F1704700BF9D
:1010D000B0FC0181B0FC0191B0FC01A1B0FC01B1F8
:1010E000704700BFA0FC0181A0FC0191A0FC01A100
:1010F000A0FC01B1704700BFEC4600B52DE90050DF
:101100002DE9FF1F4FF000032DE90C0001A909F0A4
:10111000E3FFDDF840E012B0704700BFEC4600B5D9
:101120002DE900502DE9FF1F4FF000032DE90C00C1
:1011300001A90AF00DF8DDF840E012B0704700BFD9
:10114000EC4600B52DE900502DE9FF1F4FF00003DC
:101150002DE90C0001A90AF01DF8DDF840E012B0FD
:10116000704700BFEC4600B52DE900502DE9FF1F88
:101170004FF000032DE90C0001AB09F0E1FFDDF8B1
:1011800040E012B0704700BFEC4600B52DE90050BA
:101190002DE9FF1F4FF000032DE90C0001AA0AF012
:1011A0004DF8DDF840E012B0704700BF704700BF57
:1011B00001F0FF01102A2BDB10F0070F08D010F808
:1011C000013B013A8B422DD010F0070F42B3F6D10C
:1011D000F0B441EA012141EA014122F007047FF025
:1011E00000070023F0E80256083C85EA010586EA7C
:1011F000010685FA47F5A3FA87F586FA47F6A5FAB8
:1012000087F68EB9EED1F0BC01F0FF0102F00702C3
:1012100032B110F8013B013A83EA010313B1F8D16E
:101220000020704701387047002D06BF354603384F
:10123000073815F0010F07D1013015F4807F02BF88
:10124000013015F4C03F0130F0BC0138704700BFD9
:10125000844641EA000313F003036DD1403A41D3C1
:1012600051F8043B40F8043B51F8043B40F8043B80
:1012700051F8043B40F8043B51F8043B40F8043B70
:1012800051F8043B40F8043B51F8043B40F8043B60
:1012900051F8043B40F8043B51F8043B40F8043B50
:1012A00051F8043B40F8043B51F8043B40F8043B40
:1012B00051F8043B40F8043B51F8043B40F8043B30
:1012C00051F8043B40F8043B51F8043B40F8043B20
:1012D00051F8043B40F8043B51F8043B40F8043B10
:1012E000403ABDD2303211D351F8043B40F8043BB0
:1012F00051F8043B40F8043B51F8043B40F8043BF0
:1013000051F8043B40F8043B103AEDD20C3205D3BF
:1013100051F8043B40F8043B043AF9D2043208D0B7
:10132000D2071CBF11F8013B00F8013B01D30B8829
:1013300003806046704700BF082A13D38B078DD007
:1013400010F003038AD0C3F10403D21ADB071CBFD9
:1013500011F8013B00F8013B80D331F8023B20F843
:10136000023B7BE7043AD9D3013A11F8013B00F87C
:10137000013BF9D20B7803704B7843708B78837004
:101380006046704700000000000000000000000000
:10139000000000000000000000000000000000004D
:1013A000000000000000000000000000000000003D
:1013B000000000000000000000000000000000002D
:1013C00090F800F06DE9024520F007016FF0000C85
:1013D00010F0070491F820F040F049804FF000042D
:1013E0006FF00700D1E9002391F840F000F1080008
:1013F00082FA4CF2A4FA8CF283FA4CF3A2FA8CF340
:101400004BBBD1E9022382FA4CF200F10800A4FAA6
:101410008CF283FA4CF3A2FA8CF3E3B9D1E90423FA
:1014200082FA4CF200F10800A4FA8CF283FA4CF331
:10143000A2FA8CF37BB9D1E9062301F1200182FAEB
:101440004CF200F10800A4FA8CF283FA4CF3A2FAF1
:101450008CF3002BC6D0002A04BF04301A4612BAFF
:10146000B2FA82F2FDE8024500EBD2007047D1E902
:10147000002304F00305C4F100004FEAC50514F091
:10148000040F91F840F00CFA05F562EA05021CBF62
:1014900063EA050362464FF00004A9E70348044BE2
:1014A000834202D0034B03B118477047E00B002082
:1014B000E00B0020000000000548064B1B1AD90F66
:1014C00001EBA301491002D0034B03B11847704749
:1014D000E00B0020E00B00200000000010B5064CDF
:1014E000237843B9FFF7DAFF044B13B10448AFF395
:1014F00000800123237010BDE30B002000000000DA
:1015000058FE000008B5054B1BB105490548AFF36F
:101510000080BDE80840FFF7CFBF00BF000000001B
:10152000E40B002058FE000080B590B000AF78605A
:101530000B46FB70FB78002B27D107F12403002218
:101540001A605A609A60DA601A615A612D4A7B68A3
:1015500052F833307B62012387F82830012387F863
:1015600029304FF0FF333B6307F12403184607F09F
:1015700023FF244A7B68DB00134401221A717B6835
:10158000DB00204A1344FB6336E0FB78012B31D1AA
:1015900007F10C0300221A605A609A60DA601A613F
:1015A0005A61184A7B6852F83330FB6001233B755F
:1015B0004FF0FF33BB6107F10C03184607F06EFFD5
:1015C000104A7B68DB00134402221A717B68292BC6
:1015D0000AD97B682C2B07D80A4A7B6852F833302B
:1015E0000121184607F096FF7B68DB00054A13448B
:1015F000FB6301E00023FB63FB6B18464037BD46ED
:1016000080BD00BF0000002080B586B000AF7860CC
:101610007B683B613B69002B0BD03B691B79012B3D
:1016200007D13B691B68184607F082FF0346FB752C
:1016300001E00023FB753B691B681B0ADBB2FB6002
:101640003B691B68DBB2BB60FB68022B02D1BB6845
:10165000062B05D0FB68002B09D1BB68042B06D1F3
:10166000FB7D002B0CBF01230023DBB2FB75FB7D50
:1016700018461837BD4680BD80B586B000AF78608B
:101680000B46FB707B687B617B69002B2FD07B69ED
:101690001B79022B2BD17B691B681B0ADBB23B61D8
:1016A0007B691B68DBB2FB603B69012B05D1FB68E2
:1016B000162B08D0FB68152B05D03B69042B0FD1E6
:1016C000FB681A2B0CD17B691A68FB78012B14BFBD
:1016D00001230023DBB21946104607F01BFF06E08A
:1016E0007B691B68FA781146184607F013FF00BFA4
:1016F0001837BD4680BD80B485B000AF78607B6888
:10170000FB60FB68002B0ED0FB681B79022B03D11A
:10171000FB6800221A7106E0FB681B79012B02D1DD
:10172000FB6800221A7100BF1437BD465DF8047BC8
:101730007047000080B584B000AFF860B960134610
:10174000FB71BB681F2B05D90D4B0E4AFF210E48BC
:101750000AF0D8F9FB68BA6853F8223023F0807396
:1017600023F4E063FA79120202F4E06243EA020130
:10177000FB68BA6843F8221000BF1037BD4680BD31
:1017800018EB000020ED000024EB000080B483B0D3
:1017900000AF78600B46FB707B681B6823F0180273
:1017A000FB78DB0003F018031A437B681A6000BF64
:1017B0000C37BD465DF8047B7047000080B58EB0E5
:1017C00000AF786187ED020B87ED001B524A7B6901
:1017D0005B01134411331B78002B40F087800023FA
:1017E00087F82830002387F82930002387F82A302B
:1017F0008023FB62484A7B695B0113441868464AB0
:101800007B695B01134404331968434A7B695B01BC
:10181000134410331B781A46FFF78CFF3E4A7B694E
:101820005B01134408331B6807F128021146184670
:1018300007F014FC384A7B695B01134408331B68CA
:10184000DBB200220121184607F08EFC324A7B6988
:101850005B011344113304221A702F4A7B695B0128
:10186000134403F11801D7E90223C1E9002302233D
:101870003B7600237B76284A7B695B01134418334F
:10188000D3E9002310461946FFF782FB0346FB61AC
:10189000D7E90001FFF77CFB03463B620023BB84D2
:1018A0001D4A7B695B01134408331B681B4A52F8CD
:1018B00023303B630021386BFFF768FF164A7B69D2
:1018C0005B01134408331868134A7B695B011344B6
:1018D0000C331B68DAB207F11803194607F0A0FCB5
:1018E0007B695B010C4A13447B630FE00A4A7B6906
:1018F0005B01134411331B78042B05D17B695B0119
:10190000054A13447B6301E000237B637B6B18462D
:101910003837BD4680BD00BF780100206CF500005F
:1019200080B483B000AF786000BF0C37BD465DF86F
:10193000047B704780B58AB000AFF86087ED000B7C
:10194000FB687B627B6A002B2CD07B6A5B7C042B60
:1019500028D102233B7400237B747B6AD3E90623DE
:1019600010461946FFF714FB03467B61D7E90001D7
:10197000FFF70EFB0346BB610023BB837B6A9B68BA
:101980000A4A52F823303B620021386AFFF7FEFE14
:101990007B6A98687B6ADB68DAB207F11003194644
:1019A00007F03EFC00BF2837BD4680BD6CF5000047
:1019B00080B485B000AF78607B68FB60FB68002B6B
:1019C00006D0FB685B7C042B02D1FB6800225A74B2
:1019D00000BF1437BD465DF8047B704780B483B008
:1019E00000AF786000BF0C37BD465DF8047B7047E0
:1019F00080B584B000AFF860B9607A60BB680F2B27
:101A000006D90A4B0A4A40F2E2210A480AF07AF85B
:101A1000FA68BB685B01134403F5805310337A689E
:101A20001A6000BF1037BD4680BD00BF5CEB0000F0
:101A300058ED000088EB000080B584B000AFF8607E
:101A4000B9601346FB71BB680F2B06D90D4B0E4ACC
:101A50004FF460710D480AF055F8BB685B0103F55F
:101A600080531833FA681344043303F1424303F5F7
:101A700080135B010433FA7992B21A8000BF1037E9
:101A8000BD4680BD5CEB000074ED000088EB0000FB
:101A900090B587B000AFF8607A603B600B46FB7290
:101AA00000237B61FB681B68032B00F0E481032BA0
:101AB00005D8012B00F09880022B00F04781954B50
:101AC00000221A60934B1B68934A52F82330002B74
:101AD00041D1904B1B68914ADB00134400229A715C
:101AE0008C4B1B688D4ADB00134400221A71894B12
:101AF0001B688A4ADB00134400225A71854B1B681D
:101B0000864A4FF4E13142F83310824B1B68184685
:101B100004F0BAFC7F4B1B689B01814A1344814946
:101B2000184607F09DF97B4B18687A4B1A681346E4
:101B30001B019B1A9B007C4A9918764B1B68DB00A3
:101B4000764A13441A4608F061FA724B1B68724ACF
:101B5000012142F823107B68B3F1FF3F20D06D4B89
:101B60001A68724913469B0013449B000B441422CD
:101B70001A60684B1A686D4913469B0013449B001A
:101B80000B4408336A4A1A60624B1A686749134665
:101B90009B0013449B000B440C33664A1A6015E00B
:101BA0005C4B1A68614913469B0013449B000B442D
:101BB000043312221A60574B1A685C4913469B0083
:101BC00013449B000B4410335B4A1A60514B1B6853
:101BD000504A1268594941F823204E4B1B689B001C
:101BE000564A13447B61F5E14A4B01221A60494B86
:101BF0001B68494A52F82330002B41D1454B1B68E2
:101C0000464ADB00134400229A71424B1B68434A48
:101C1000DB00134400221A713E4B1B683F4ADB0075
:101C2000134400225A713B4B1B683C4A4FF4E1318C
:101C300042F83310374B1B68184604F025FC354B2F
:101C40001B689B01364A13443649184607F008F9C9
:101C5000304B18682F4B1A6813461B019B1A9B00C8
:101C6000314A99182B4B1B68DB002C4A13441A4647
:101C700008F0CCF9274B1B68274A012142F82310B2
:101C80007B68B3F1FF3F20D0224B1A6827491346E7
:101C90009B0013449B000B4400221A601D4B1A68E2
:101CA000224913469B0013449B000B440833244AEB
:101CB0001A60184B1A681D4913469B0013449B0079
:101CC0000B440C331F4A1A6015E0124B1A6817496F
:101CD00013469B0013449B000B44043300221A60FC
:101CE0000C4B1A68114913469B0013449B000B448C
:101CF0001033154A1A60074B1B68064A12680F49D1
:101D000041F82320034B1B689B000C4A13447B6162
:101D100060E100BF0010002004100020200F002010
:101D2000380C002038040020B80D0020580F002087
:101D3000FC0B0020100C0020240C0020E80F0020D9
:101D4000240C0020240C0020380C0020824B02229E
:101D50001A60814B1B68814A52F82330002B41D115
:101D60007D4B1B687E4ADB00134400229A717A4B3C
:101D70001B687B4ADB00134400221A71764B1B68F8
:101D8000774ADB00134400225A71734B1B68744A74
:101D90004FF4E13142F833106F4B1B68184604F0E2
:101DA00073FB6D4B1B689B016E4A13446E491846CA
:101DB00007F056F8684B1868674B1A6813461B0102
:101DC0009B1A9B00694A9918634B1B68DB00644AA5
:101DD00013441A4608F01AF95F4B1B685F4A012149
:101DE00042F823107B68B3F1FF3F20D05A4B1A68AA
:101DF0005F4913469B0013449B000B4400221A606A
:101E0000554B1A685A4913469B0013449B000B44D8
:101E10000833584A1A60504B1A68554913469B00BC
:101E200013449B000B440C33534A1A6015E04A4B91
:101E30001A684F4913469B0013449B000B4404331C
:101E400000221A60444B1A68494913469B00134408
:101E50009B000B441033494A1A603F4B1B683E4AB3
:101E60001268474941F823203B4B1B689B00444ABA
:101E700013447B61AEE0384B03221A60364B1B687B
:101E8000364A52F82330002B41D1334B1B68344A79
:101E9000DB00134400229A712F4B1B68304ADB0091
:101EA000134400221A712C4B1B682D4ADB0013448B
:101EB00000225A71284B1B68294A4FF4E13142F83D
:101EC0003310254B1B68184604F0DEFA224B1B68C2
:101ED0009B01244A13442449184606F0C1FF1E4BB7
:101EE00018681D4B1A6813461B019B1A9B001F4A5A
:101EF0009918194B1B68DB00194A13441A4608F05D
:101F000085F8154B1B68154A012142F823107B68A0
:101F1000B3F1FF3F3AD0104B1A68154913469B00A6
:101F200013449B000B4400221A600B4B1A681049A3
:101F300013469B0013449B000B440833114A1A605C
:101F4000054B1A680A4913469B0013449B000B4437
:101F50000C330D4A1A602FE00010002004100020FE
:101F6000200F0020380C002038040020B80D00207D
:101F7000580F0020240C0020240C0020380C0020D6
:101F8000E80F0020240C0020240C00202A4B1A68A3
:101F90002A4913469B0013449B000B440433002240
:101FA0001A60254B1A68254913469B0013449B0071
:101FB0000B441033224A1A601F4B1B681E4A1268DA
:101FC000204941F823201C4B1B689B001D4A1344E9
:101FD0007B6100BF7B68B3F1FF3F27D0164B1A68C7
:101FE00013461B019B1A9B002833174A13440433E2
:101FF000114A12681549184606F074FF0E4B18680E
:102000000D4B1A680D4913469B0013449B000B446B
:1020100008331968084B1A68084C13469B00134490
:102020009B0023441B681A4600F0CEF87B691846D3
:102030001C37BD4690BD00BF00100020580F002087
:10204000380C0020E80F0020B80D00207522000099
:1020500080B483B000AF78603960002318460C3735
:10206000BD465DF8047B704780B483B000AF7860F4
:10207000084611461A460346FB700B46BB701346D2
:102080007B70002318460C37BD465DF8047B704713
:1020900080B586B000AFF860B9607A60FB683B61DC
:1020A0003B69002B33D03B691B681F4AD35C012B73
:1020B0002DD13B691B681D4A52F82330012B0FD1EB
:1020C0003B691A681A4913469B0013449B000B4452
:1020D00008331B687A681946B868FFF7B9F80EE04C
:1020E0003B691A68124913469B0013449B000B443A
:1020F0000C331B687A681946B868FFF7A9F83B6982
:102100001B68094A0021D1540023FB7506E07A6858
:102110000021B8680BF00EFD2023FB75FB7D1846EF
:102120001837BD4680BD00BF500F0020D00F0020E3
:10213000580F002080B586B000AFF860B9607A60B3
:10214000FB683B613B69002B2AD03B691B6800217F
:10215000184608F0A9F80346082B21D03B691A68F5
:10216000134913469B0013449B000B4410331B6818
:102170007A68B9681846FFF76BF83B6918683B69DD
:102180001A680B4913469B0013449B000B44103301
:102190001B687A68194608F063F80346FB7501E08E
:1021A0002023FB75FB7D18461837BD4680BD00BF58
:1021B000580F002080B483B000AF786000BF0C37A8
:1021C000BD465DF8047B704780B588B000AFF8600D
:1021D000B9607A60FB68052B06D9214B214A40F291
:1021E0008911214809F08EFC204AFB6852F82330FF
:1021F000FB61FB6993F82C301B09DBB21A461C4BC0
:1022000053F82230BB61FB6993F82C3003F00F03C5
:102210007B61FB695B78DBB2002B01D009231AE0FC
:10222000FB6901225A70BB681A467969B869FFF7E1
:10223000DFFB7A687969B86906F054FD0122796993
:10224000B869FFF7F9FB7B69DBB201221946B8696F
:1022500006F039FC002318462037BD4680BD00BF7C
:10226000C0EB000034ED0000E0EB0000045600205D
:102270002CF3000080B582B000AF78600B46FB7095
:102280007B68184600F004F800BF0837BD4680BDE3
:1022900080B586B000AF78607B68052B06D93C4BD3
:1022A0003C4A40F2AD113C4809F02CFC3B4A7B68AB
:1022B00052F823307B617B6993F82C301B09DBB229
:1022C0001A46374B53F822303B617B6993F82C3028
:1022D00003F00F03FB600022F9683869FFF7ACFBDD
:1022E000FB68DBB200221946386906F0ECFB7B691B
:1022F000DB78DBB2002B04D07B691033184606F084
:1023000041F97B6900225A70264A7B6813440122F6
:102310001A70254A7B6852F82330002B1AD12349C2
:102320007A6813469B0013449B000B440C331968D6
:102330001E487A6813469B0013449B0003441B68A5
:102340001A467868FFF740FF174A7B68012142F878
:10235000231019E015497A6813469B0013449B002B
:102360000B440833196811487A6813469B001344DC
:102370009B0003441B681A467868FFF725FF0A4A4A
:102380007B68002142F8231000BF1837BD4680BD8E
:10239000C0EB00008CED0000E0EB000004560020D4
:1023A0002CF30000500F0020D00F0020580F002009
:1023B00080B582B000AF786006F0E2FA03461846B6
:1023C0000837BD4680BD80B483B000AF78607B68BD
:1023D000023303F1424303F580135B011C330122F6
:1023E0001A7000BF0C37BD465DF8047B704780B49F
:1023F00083B000AF78607B68023303F1424303F59A
:1024000080135B010C3300221A7000BF0C37BD46ED
:102410005DF8047B704780B483B000AF78607B6860
:10242000023303F1424303F580135B010C330122B5
:102430001A7000BF0C37BD465DF8047B704780B44E
:1024400083B000AF78600B46FB707B68023303F10A
:10245000424303F580135B0110331A46FB78137077
:1024600000BF0C37BD465DF8047B704780B483B075
:1024700000AF78607B681B79DBB218460C37BD462D
:102480005DF8047B704780B483B000AF78600B4682
:10249000FB707B68FA781A7100BF0C37BD465DF897
:1024A000047B704780B483B000AF78600B46FB704C
:1024B0007B68DB78DBB21A46FB7842FA03F303F061
:1024C0000103002B14BF01230023DBB218460C3795
:1024D000BD465DF8047B704780B483B000AF786080
:1024E0007B68023303F1424303F580135B0114332D
:1024F0001B78DBB2002B14BF01230023DBB218468C
:102500000C37BD465DF8047B704780B483B000AFE4
:1025100078600B46FB707B68023303F1424303F59E
:1025200080135B011833FA781A7000BF0C37BD4670
:102530005DF8047B704780B483B000AF78607B683F
:102540000222DA7000BF0C37BD465DF8047B70478D
:1025500080B584B000AFF860B9601346FB71BB680A
:102560001F2B05D90B4B0C4AD9210C4809F0CAFA8C
:10257000BB689B00FA68134403F1424303F58013E0
:102580005B0114331A46FB79136000BF1037BD4658
:1025900080BD00BF48EC0000D0ED000054EC00000E
:1025A00080B584B000AFF860B9601346FB71BB68BA
:1025B0001F2B05D90D4B0E4AFF210E4809F0A2FA38
:1025C000FB68BA6853F8223023F0807323F4E06389
:1025D000FA79120202F4E06243EA0201FB68BA6887
:1025E00043F8221000BF1037BD4680BD48EC000004
:1025F000BCED000054EC000080B584B000AF786002
:102600007B681B680F4A52F82330FB607B681B68AD
:10261000184600F0EFF97B681B68184606F00CFAC4
:10262000F86806F0A3FFF868FFF7CDFE0121F8680F
:10263000FFF76BFF0449786800F0FCF800BF103723
:10264000BD4680BDB0ED0000A086010080B584B01D
:1026500000AF78607B681B68054A52F82330FB6046
:10266000F86806F0C7FF002318461037BD4680BD46
:10267000B0ED000080B584B000AF78600023BB608F
:102680007B681B680E4A52F82330FB60F868FFF73E
:1026900023FF0346002B02D0F86806F0BBFF00239F
:1026A000BB6004E000BF00BFBB680133BB60BB6818
:1026B000C72BF7D9002318461037BD4680BD00BF91
:1026C000B0ED000080B586B000AF78600B46FB70BF
:1026D000104B3B617B681B680F4A52F82330FB604C
:1026E00000237B610CE0FB781946F868FFF7DAFEFF
:1026F0000346002B01D0002307E07B6901337B6197
:102700007A693B699A42EED3012318461837BD46D1
:1027100080BD00BFA0860100B0ED000080B584B090
:1027200000AF78607B681B68104A52F82330FB606A
:1027300001217868FFF7C6FF0346002B01D0022372
:1027400010E0F868FFF7F7FE07217868FFF7BAFF97
:102750000346002B01D0022304E00021F868FFF7B4
:10276000A1FE034618461037BD4680BDB0ED0000FF
:1027700080B584B000AF78607B681B680A4A52F865
:102780002330FB6001217868FFF79CFF0346002B94
:1027900001D0012303E0F868FFF7CDFE00231846BF
:1027A0001037BD4680BD00BFB0ED000080B584B0DD
:1027B00000AF786039607B681B68094A52F82330A3
:1027C000FB603B68DBB21946F868FFF75CFE78688F
:1027D000FFF7A4FF034618461037BD4680BD00BF73
:1027E000B0ED000080B586B000AFF860B9607A60E7
:1027F000FB681B680E4A52F823307B617B68002B14
:1028000003D07869FFF707FE02E07869FFF7EFFD74
:102810007869FFF72BFE03461A46BB681A70F86802
:10282000FFF7A6FF034618461837BD4680BD00BF18
:10283000B0ED000080B584B000AF786039607B688F
:102840001B680E4A52F82330FB607B681B681846F1
:10285000FFF7AEFD0346BB603B68094A82FB0312EB
:102860009211DB17D31A1A460023B968F86806F0EC
:102870008BFE00BF1037BD4680BD00BFB0ED00002D
:10288000D34D621090B589B000AFF860B9607A603E
:102890003B60F868FFF7DAFE0346002B05D0F868C6
:1028A000FFF7E8FE6FF0010355E0BB6843F001035A
:1028B0001946F868FFF77AFF0346002B05D0F86841
:1028C000FFF7D8FE4FF0FF3345E0FB681B68244A52
:1028D00052F82330BB610021B869FFF7B0FD002337
:1028E000FB6124E0FB69002B02D107F1120303E036
:1028F000FB69013B7A6813447B613B68013BFA69E1
:102900009A420CBF01230023DBB2FB74FB7C1A4606
:102910007969F868FFF766FF0346002B04D0F86872
:10292000FFF7A8FEFB6916E0FB690133FB61FA695A
:102930003B689A42D6DB3B6B002B02D0F868FFF76E
:1029400099FEFB69013B7A68D418B869FFF78EFDE0
:10295000034623703B6818462437BD4690BD00BF30
:10296000B0ED000080B586B000AFF860B9607A6065
:102970003B60F868FFF76AFE0346002B05D0F86855
:10298000FFF778FE6FF0010330E0BB6803F0FE0351
:102990001946F868FFF70AFF0346002B05D0F868D0
:1029A000FFF768FE4FF0FF3320E000237B6112E069
:1029B0007B697A6813441B781946F868FFF7F6FEBE
:1029C0000346002B04D0F868FFF754FE7B690DE046
:1029D0007B6901337B617A693B689A42E8DB3B6A39
:1029E000002B02D0F868FFF745FE3B681846183701
:1029F000BD4680BD80B582B000AF78607B68002B9B
:102A000003D07B68012B15D029E005221821164838
:102A1000FFF7C6FD012218211348FFF799FD052293
:102A200019211148FFF7BCFD012219210E48FFF7BB
:102A30008FFD14E002220A210C48FFF7B1FD0122AC
:102A40000A210A48FFF784FD02220B210748FFF7FD
:102A5000A7FD01220B210548FFF77AFD00BF00BF4B
:102A60000837BD4680BD00BF00D0044000B0044020
:102A700080B584B000AF78600B46FB707B68012B9B
:102A800011D80C497B687A6841F823207B689B0049
:102A9000084A13441846FFF7AFFD7B689B00054AC0
:102AA0001344FB6001E00023FB60FB68184610370D
:102AB000BD4680BD1C10002080B584B000AF78609A
:102AC00039607B68002B07D03B6819467868FFF7B0
:102AD000B1FE0023FB7301E00823FB73FB7B184668
:102AE0001037BD4680BD80B588B002AFF8607A600F
:102AF0003B600B467B8100237B6197F82030002BE5
:102B00000CBF01230023DBB23B61FB68002B19D013
:102B10007B8959003A683B69009313467A68F868E4
:102B2000FFF7B0FE03467B617B6913F1020F01D111
:102B3000012308E07B69B3F1FF3F01D1042302E0E8
:102B4000002300E0082318461837BD4680BD80B535
:102B500088B002AFF8607A603B600B467B8100234F
:102B60007B6197F82030002B0CBF01230023DBB2E0
:102B70003B61FB68002B19D07B8959003A683B699F
:102B8000009313467A68F868FFF7ECFE03467B6112
:102B90007B6913F1020F01D1012308E07B69B3F1D6
:102BA000FF3F01D1042302E0002300E00823184680
:102BB0001837BD4680BD80B483B000AF786000BFD9
:102BC0000C37BD465DF8047B7047000080B586B0C9
:102BD00000AF7861184B1B681B68002B0CBF0123EA
:102BE0000023DBB21A46154B1A7011E03B4614491C
:102BF000184604F01AF800F063FF0F4B1B681B68BF
:102C0000002B14BF01230023DBB21A460D4B1A70B0
:102C10000A4B1B78DBB2002BE8D1084B00221A705C
:102C2000786900F011F8002003F058FF00231846DF
:102C30001837BD4680BD00BFECED00003A0400200F
:102C4000301000202410002080B582B000AF7860E2
:102C5000074B01221A60074B00221A7002F020FD78
:102C6000054803F0CFFF002318460837BD4680BD56
:102C70004C1000203A0400202810002080B586B0B7
:102C800000AF7861396103F0CFF903F097FB0A4B8D
:102C90001B6800221A6002F0D3FA00209FED070A99
:102CA00003F06EFE3B460649184603F0BEFF0023C4
:102CB00018461837BD4680BDECED00006F12833A10
:102CC000281000200000000080B582B000AF7860BE
:102CD00039607B68D3E90023394901F51A6141E97C
:102CE0000223374B03F51C6319464FF00002354BA6
:102CF000C1E90023324B03F51C6319464FF0000273
:102D00004FF0000341E902232D4B03F519631946E7
:102D10004FF000024FF00003C1E90023284B03F5F8
:102D20001B6319464FF000024FF0000341E90223F4
:102D3000234B03F51B6319464FF000024FF00003CD
:102D4000C1E900231E4B03F51D6319464FF0000235
:102D50004FF0000341E90223194B03F51D631946A7
:102D60004FF00002174BC1E90023154B03F5186320
:102D700019464FF00002134BC1E90023124BD3E96F
:102D800024230F4901F5196141E902233B68D3E986
:102D9000002309A1D1E90001FDF74CFF02460B46D3
:102DA0000A4901F53A61C1E9002300BF0837BD4671
:102DB00080BD00BFAFF3008000000000004CDD408C
:102DC000501000200000F03F40040020C01A0020F6
:102DD00080B582B000AF786039603B4B03F51C636F
:102DE00019464FF00002394BC1E90023364B03F579
:102DF0001C6319464FF000024FF0000341E9022323
:102E0000314B03F5196319464FF000024FF00003F0
:102E1000C1E900232C4B03F51B6319464FF0000258
:102E20004FF0000341E90223274B03F51B631946CA
:102E30004FF000024FF00003C1E90023224B03F5DD
:102E40001D6319464FF00002204B41E902231E4B3F
:102E500003F51D6319464FF000024FF00003C1E96E
:102E60000023194B03F5186319464FF00002174B66
:102E7000C1E900237B68D3E90023134901F51A61F6
:102E800041E902233B68D3E900234FF000000F49DA
:102E9000FDF7D0FE02460B461046194608A3D3E9BB
:102EA0000023FDF79DFD02460B46094901F53A61F5
:102EB000C1E9002300BF0837BD4680BDAFF30080E5
:102EC00000000000004CDD40501000200000F03FEA
:102ED000C01A00200000000080B582B000AF78600A
:102EE00039607B68D3E90023394901F51A6141E96A
:102EF0000223374B03F51C6319464FF00002354B94
:102F0000C1E90023324B03F51C6319464FF0000260
:102F10004FF0000341E902232D4B03F519631946D5
:102F20004FF000024FF00003C1E90023284B03F5E6
:102F30001B6319464FF000024FF0000341E90223E2
:102F4000234B03F51B6319464FF000024FF00003BB
:102F5000C1E900231E4B03F51D6319464FF0000223
:102F60001C4B41E902231A4B03F51D6319464FF030
:102F700000024FF00003C1E90023154B03F518636D
:102F800019464FF00002134BC1E90023124BD3E95D
:102F900018230F4901F51A61C1E900233B68D3E901
:102FA000002309A1D1E90001FDF744FE02460B46CA
:102FB0000A4901F53A61C1E9002300BF0837BD465F
:102FC00080BD00BFAFF3008000000000004CDD407A
:102FD000501000200000F03F40040020C01A0020E4
:102FE00080B582B000AF786039603B4B03F51C635D
:102FF00019464FF00002394BC1E90023364B03F567
:103000001C6319464FF000024FF0000341E9022310
:10301000314B03F5196319464FF000024FF00003DE
:10302000C1E900232C4B03F51B6319464FF0000246
:103030004FF0000341E90223274B03F51B631946B8
:103040004FF000024FF00003C1E90023224B03F5CB
:103050001D6319464FF000024FF0000341E90223BF
:103060001D4B03F51D6319464FF000021B4BC1E9D0
:103070000023194B03F5186319464FF00002174B54
:10308000C1E900237B68D3E90023134901F51A61E4
:1030900041E902233B68D3E900234FF000000F49C8
:1030A000FDF7C8FD02460B461046194608A3D3E9B2
:1030B0000023FDF795FC02460B46094901F53A61EC
:1030C000C1E9002300BF0837BD4680BDAFF30080D3
:1030D00000000000004CDD40501000200000F03FD8
:1030E000C01A002090B585B000AFF860B9607A6072
:1030F0003B60954B93F8583A012B04D0924B93F8D0
:10310000583A052B14D1914B002283F8B12B8F4BE9
:10311000032283F8AD2B8D4B0022C3F8A82B8B4BD9
:10312000022283F8B02B396A3868FFF759FFCBE1E8
:10313000854B93F8583A022B04D0834B93F8583AB6
:10314000062B10D1814B002283F8B12B7F4B01223B
:1031500083F8AD2B7D4B022283F8AE2B396AF868D9
:10316000FFF7BAFEB0E1784B93F8583A002B04D041
:10317000754B93F8583A042B14D1744B002283F802
:10318000B12B724B022283F8AD2B704B0022C3F897
:10319000A82B6E4B022283F8AF2B396AF868FFF731
:1031A00017FE91E1694B93F8B13B032B00F0D280FD
:1031B000032B00F36681012B02D0022B6DD060E15E
:1031C000614B03F5186319464FF000024FF00003FE
:1031D000C1E900235C4B03F51C6319464FF0000264
:1031E0005B4BC1E90023584B03F51B6319464FF0B5
:1031F00000024FF00003C1E90023534B03F51D63A8
:1032000019464FF000024FF0000341E902234E4BF4
:1032100003F5196319464FF000024FF00003C1E9AE
:103220000023494B03F51B6319464FF000024FF092
:10323000000341E90223444B03F51D6319464FF097
:1032400000024FF00003C1E900233F4B03F51C636C
:1032500019464FF000023E4B41E902233B4BD3F8A5
:10326000A84BBB6893ED007BB0EE470AF0EE670A0F
:1032700007F0F6FB53EC102B10461946FDF788FEBD
:1032800003469C42C0F01B81304B022283F8B12BD5
:10329000396A3868FFF718FD11E12B4B03F51C6301
:1032A00019464FF000022A4BC1E90023264B03F5D3
:1032B0001C6319464FF000024FF0000341E902235E
:1032C000214B03F5196319464FF000024FF000033C
:1032D000C1E900231C4B03F51B6319464FF00002A4
:1032E0004FF0000341E90223174B03F51B63194616
:1032F0004FF000024FF00003C1E90023124B03F529
:103300001D6319464FF000024FF0000341E902230C
:103310000D4B03F51D6319464FF000020C4BC1E93C
:103320000023094B03F5186319464FF00002084BC0
:10333000C1E90023054B0022C3F8A82B034B04224C
:1033400083F8B12BC0E000BF50100020C01A00204D
:103350000000F03F5E4BD3F8A84B5D4B03F53A639A
:10336000D3E90001BB68D3E90023FDF781F90246E8
:103370000B46104619467B68D3E90023FDF778F920
:1033800002460B4643EC172BB0EE470AF0EE670AF5
:1033900007F066FB53EC102B10461946FDF7F8FDBD
:1033A00003469C4260D34A4B0022C3F8A82B484BEB
:1033B000012283F8B12B474B03F51A6319464FF0EE
:1033C00000024FF0000341E90223424B03F518636A
:1033D00019464FF000024FF00003C1E900233D4BB6
:1033E00003F51C6319464FF000023B4BC1E9002373
:1033F000384B03F51B6319464FF000024FF00003F2
:10340000C1E90023334B03F51D6319464FF0000259
:103410004FF0000341E902232E4B03F519631946CF
:103420004FF000024FF00003C1E90023294B03F5E0
:103430001B6319464FF000024FF0000341E90223DD
:10344000244B03F51D6319464FF000024FF00003B3
:10345000C1E900231F4B03F51C6319464FF000021E
:103460001D4B41E902232CE07B6A1B78002B28D0FE
:10347000174B0022C3F8A82B154B042283F8B12B5D
:103480001FE0134BD3F8A84B7B6893ED007BB0EEA5
:10349000470AF0EE670A07F0E3FA53EC102B1046E8
:1034A0001946FDF775FD03469C420CD3084B0022DC
:1034B000C3F8A82B064B032283F8B12B03E000BF0F
:1034C00002E000BF00E000BF00BF1437BD4690BD62
:1034D000C01A0020501000200000F03F90B585B0C9
:1034E00000AFF860B9607A603B60954B93F8583A4A
:1034F000032B04D0924B93F8583A072B10D1914BE1
:10350000002283F8AE2B8F4B042283F8AD2B8D4B1A
:10351000022283F8B12B396A3868FFF7D5FBCFE177
:10352000874B93F8583A002B04D0854B93F8583AC0
:10353000042B14D1834B002283F8AE2B814B022243
:1035400083F8AD2B7F4B0022C3F8A82B7D4B0222C2
:1035500083F8AF2B396AB868FFF73AFCB0E1784BD3
:1035600093F8583A012B04D0754B93F8583A052B31
:1035700014D1744B002283F8AE2B724B032283F8D4
:10358000AD2B704B0022C3F8A82B6E4B022283F8A0
:10359000B02B396A3868FFF723FD91E1694B93F846
:1035A000AE3B032B00F0D280032B00F36681012B8E
:1035B00002D0022B6DD060E1614B03F51863194610
:1035C0004FF000024FF00003C1E900235C4B03F50C
:1035D0001C6319464FF000025B4BC1E90023584BB6
:1035E00003F51B6319464FF00002574BC1E9002356
:1035F000534B03F51D6319464FF000024FF00003D3
:1036000041E902234E4B03F5196319464FF00002BE
:103610004FF00003C1E90023494B03F51B63194632
:103620004FF000024FF0000341E90223444B03F541
:103630001D6319464FF000024FF00003C1E900235B
:103640003F4B03F51C6319464FF000024FF0000397
:1036500041E902233B4BD3F8A84BFB6893ED007B79
:10366000B0EE470AF0EE670A07F0FAF953EC102BB8
:1036700010461946FDF78CFC03469C42C0F01B81A6
:10368000304B022283F8AE2B396AB868FFF724FC6E
:1036900011E12B4B03F51C6319464FF000022A4B36
:1036A000C1E90023264B03F51C6319464FF00002C5
:1036B0004FF0000341E90223214B03F5196319463A
:1036C0004FF000024FF00003C1E900231C4B03F54B
:1036D0001B6319464FF000024FF0000341E902233B
:1036E000174B03F51B6319464FF000024FF0000320
:1036F000C1E90023124B03F51D6319464FF0000288
:10370000114B41E902230E4B03F51D6319464FF09F
:1037100000024FF00003C1E90023094B03F51863D1
:1037200019464FF00002084BC1E90023054B002267
:10373000C3F8A82B034B042283F8AE2BC0E000BFD4
:1037400050100020C01A00200000F03F5E4BD3F85C
:10375000A84B5D4B03F53A63D3E90001FB68D3E95D
:103760000023FCF785FF02460B46104619467B688E
:10377000D3E90023FCF77CFF02460B4643EC172BF2
:10378000B0EE470AF0EE670A07F06AF953EC102B27
:1037900010461946FDF7FCFB03469C4260D34A4B9A
:1037A0000022C3F8A82B484B012283F8AE2B474BCD
:1037B00003F51A6319464FF000024FF0000341E988
:1037C0000223424B03F5186319464FF000024FF0F5
:1037D0000003C1E900233D4B03F51C6319464FF07C
:1037E00000023B4BC1E90023384B03F51B6319462C
:1037F0004FF00002364BC1E90023344B03F51D6343
:1038000019464FF000024FF0000341E902232F4B0D
:1038100003F5196319464FF000024FF00003C1E9A8
:1038200000232A4B03F51B6319464FF000024FF0AB
:10383000000341E90223254B03F51D6319464FF0B0
:1038400000024FF00003C1E90023204B03F51C6385
:1038500019464FF000024FF0000341E902232CE02B
:103860007B6A1B78002B28D0174B0022C3F8A82BAB
:10387000154B042283F8AE2B1FE0134BD3F8A84B53
:103880007B6893ED007BB0EE470AF0EE670A07F025
:10389000E7F853EC102B10461946FDF779FB034669
:1038A0009C420CD3084B0022C3F8A82B064B0322E2
:1038B00083F8AE2B03E000BF02E000BF00E000BFD2
:1038C00000BF1437BD4690BDC01A00205010002024
:1038D0000000F03F80B584B000AF78607B680122C3
:1038E0005A600023FB6007F10C004FF0FF330A22FF
:1038F0000021FEF7CDF802467B681A617B681B69E0
:103900004FF4E1311846FEF7A3FB7B6818690123E9
:1039100000220821FEF7A8FB7B6801221A7200BF73
:103920001037BD4680BD000080B586B002AF78601C
:103930007B6801225A6000210020FFF799F80246B7
:103940007B689A627B68494A5A627B689A6A7B689C
:103950005B6A19461046FFF7AFF82B233B734023F1
:103960007B737B68986A07F10C02002301930023A4
:10397000009302231D21FFF7EAF84FF4FA7004F0D8
:1039800041FE2A23BB727B68986A07F10A02002372
:1039900001930123009301231D21FFF7D8F803466B
:1039A000BB72BB7A002B14D17B68986A07F10A02BC
:1039B000012301930023009301231D21FFF793F8B6
:1039C00007F10A0107F10B0301221846FDF740FC3D
:1039D00001E00023FB722A233B73FB7A23F00103EF
:1039E000DBB27B737B68986A07F10C0200230193BA
:1039F0000023009302231D21FFF7A9F80E233B7338
:103A000001237B737B68986A07F10C020023019302
:103A10000023009302231D21FFF799F85B233B73DA
:103A200000237B737B68986A07F10C0200230193E3
:103A30000023009302231D21FFF789F82A233B73FB
:103A400001237B737B68986A07F10C0200230193C2
:103A50000023009302231D21FFF779F87B680122E0
:103A60001A7200BF1037BD4680BD00BFA08601009E
:103A700080B483B000AF78607B6800221A727B68E4
:103A800001225A607B6801221A637B6801225A6313
:103A90007B6800229A637B6800229A637B6803F14B
:103AA00038027B68DA627B6801221A727B68002226
:103AB0005A7200BF0C37BD465DF8047B70470000AA
:103AC0002DE9B0438AB002AFB34B03F5266353E947
:103AD0000201B24BD3E90023FDF7EAF90346002BBC
:103AE00007D1AE4BD3E90023AB4901F5266141E98B
:103AF0000223A94BD3F8503A1846FDF785FD03463B
:103B0000BB70A54B03F5246353E90201A34BD3E932
:103B10000223FDF7CDF90346002B07D19F4BD3E9D4
:103B200002239D4901F5246141E902239A4BD3F810
:103B3000303A1846FDF768FD03467B70964B03F557
:103B4000286353E90201954BD3E90823FDF7B0F947
:103B50000346002B07D1914BD3E908238E4901F589
:103B6000286141E902238C4BD3F8703A14228C4926
:103B70001846FEF78DFA0346FB70142288498948DF
:103B8000FDF766FB844B03F5226353E90201834B87
:103B9000D3E90423FDF78CF90346002B07D17F4BB3
:103BA000D3E904237C4901F5226141E902237A4BE0
:103BB000D3F8103A1846FDF727FD0346FB76774BFE
:103BC00093ED307AFB7E07EE903AF8EE677A67EE77
:103BD000277A754B03F52463C3ED007A6E4B03F52A
:103BE000206353E902016D4BD3E90623FDF760F929
:103BF0000346002B07D1694BD3E90623664901F53B
:103C0000206141E90223644BD3F8F0391846FDF7EF
:103C1000FBFC0346FB76614B93ED317AFB7E07EEAE
:103C2000903AF8EE677A67EE277A5F4B03F6442303
:103C3000C3ED007A584B93F8C83B1E2B07D8564B60
:103C400093F8C83B0133DAB2534B83F8C82B524B7D
:103C500093F8C63B002B54D14F4B012283F8C62B5F
:103C60004D4B012283F8C72B4F4B012283F8582A72
:103C70004D4B3C2283F8592A4B4B782283F85A2A21
:103C8000494B782283F85B2A474B962283F85C2ABB
:103C9000454B232283F85D2A434B232283F85E2A77
:103CA000414B282283F85F2A3F4B282283F8602A61
:103CB0003D4B0F2283F8612A3B4B322283F8622A64
:103CC000394B192283F8632A374B202283F8642A60
:103CD000354B202283F8652A334B042283F8662A69
:103CE000314B1E2283F8672A2F4B082283F8682A5B
:103CF0002D4B052283F8692A2B4B002283F86B2A6F
:103D00007BE1254B93F8C73B013B072B00F25C811D
:103D100001A252F823F000BF393D0000433D0000EE
:103D20004D3D0000633D0000753D00008F3D0000EB
:103D3000AD3D0000AF3E0000174B072283F8C72BB4
:103D40005BE1154B072283F8C72B56E1124B042287
:103D500083F8C72B01F010FF134B012283F86B2A65
:103D60004BE1114B002283F86B2A0B4B072283F89F
:103D7000C72B42E1084B93F8C83B132B40F232812A
:103D8000054B022283F8C72B01F0F6FE2AE1024B15
:103D9000072283F8C72B30E1C01A0020400400201E
:103DA000BC190020A819002050100020FB78002B1F
:103DB00040F01A818E4B93F858298E4B83F8B32B21
:103DC0008B4B93F859298B4B83F8B22B884B93F884
:103DD0005A29884B83F8BD2B854B93F85B29854B7B
:103DE00083F8B42B824B93F85C29824B83F8B62B73
:103DF0007F4B93F85D297F4B83F8B52B7C4B93F871
:103E00005E297C4B83F8B82B794B93F85F29794B6B
:103E100083F8B72B764B93F86029764B83F8C22B47
:103E2000734B93F86129734B83F8BA2B704B93F85B
:103E30006229704B83F8C32B6D4B93F863296D4B4C
:103E400083F8BB2B6A4B93F864296A4B83F8C52B24
:103E5000674B93F86529674B83F8B92B644B93F84C
:103E60006629644B83F8C42B614B93F86729614B37
:103E700083F8BE2B5E4B93F868295E4B83F8BC2B0E
:103E80005B4B93F869295B4B83F8BF2B584B93F836
:103E90006A29584B83F8C12B554B93F86B29554B26
:103EA00083F8C02B534B092283F8C72B9CE0514B5E
:103EB00093F8B23B552B07D0552B00F39780222B5C
:103EC00073D0382B7AD091E04A4B062283F8C72B67
:103ED000484B93F8BD2B464B83F8582A454B93F833
:103EE000B42B434B83F8592A424B93F8B62B404BE3
:103EF00083F85A2A3F4B93F8B52B3D4B83F85B2A46
:103F00003C4B93F8B82B3A4B83F85C2A394B93F827
:103F1000B72B374B83F85D2A364B93F8C22B344BC3
:103F200083F85E2A334B93F8BA2B314B83F85F2A20
:103F3000304B93F8C32B2E4B83F8602A2D4B93F80C
:103F4000BB2B2B4B83F8612A2A4B93F8C52B284BAC
:103F500083F8622A274B93F8B92B254B83F8632A01
:103F6000244B93F8C42B224B83F8642A214B93F8FB
:103F7000BE2B1F4B83F8652A1E4B93F8BC2B1C4BA2
:103F800083F8662A1B4B93F8BF2B194B83F8672ADB
:103F9000184B93F8C12B164B83F8682A154B93F8EE
:103FA000C02B134B83F8692A0DE0124B002283F8D3
:103FB000C82B104B052283F8C72B04E00D4B0322BE
:103FC00083F8C72B00BF11E00A4B93F8B33B162BC5
:103FD00012D1084B082283F8C72B054B012283F826
:103FE0006B2A09E000BF08E000BF06E000BF04E064
:103FF00050100020C01A002000BF8C4BD3E90E45A2
:104000008B4B93F85F3A1846FCF770FC02460B4660
:1040100020462946FCF7E4FC02460B46844901F59C
:10402000206141E90223814BD3E91045804B93F88D
:104030005D3A1846FCF75AFC02460B4620462946D4
:10404000FCF7CEFC02460B4610461946774BD3E9E7
:104050001223FCF7EFFD02460B4610461946734B40
:10406000D3E91423FCF7BCFC02460B46704901F56A
:104070002061C1E900236D4BD3E916456C4B93F8E1
:10408000633A1846FCF732FC02460B4620462946A6
:10409000FCF7A6FC02460B46654901F5216141E9A2
:1040A0000223624BD3E91A45614B93F8603A1846F4
:1040B000FCF71CFC02460B4620462946FCF790FC08
:1040C00002460B465A4901F52161C1E90023574BCD
:1040D000D3E91C45564B93F85E3A1846FCF706FCAC
:1040E00002460B4620462946FCF77AFC02460B4660
:1040F000104619464D4BD3E91E23FCF79BFD0246A3
:104100000B4610461946494BD3E92023FCF768FCBF
:1041100002460B46464901F52261C1E90023434BA3
:10412000D3E92245424B93F8643A1846FCF7DEFB8C
:1041300002460B4620462946FCF752FC02460B4637
:104140003B4901F5226141E902233A4B03F51C6327
:10415000D3E90001354BD3E90C23FCF7A9FE034654
:10416000002B07D1314BD3E90C23324901F51C61F7
:10417000C1E900230123FB702E4BD3F8D809FA1CA8
:10418000002301930123009301231D21FEF7DFFC8F
:104190000346FB70FB78002B54D1264BD3F8D8098B
:1041A00007F10C02012301930023009306231D2134
:1041B000FEF799FC07F10C03062219461E48FDF78D
:1041C00047F83B1D02221C491846FDF741F87B7950
:1041D0003B723B797B7207F10803022219461648AD
:1041E000FDF736F83B1D022214491846FDF730F85A
:1041F0007B793B723B797B7207F1080302221946F7
:104200000E48FDF725F83B1D02220D491846FDF723
:104210001FF87B793B723B797B7207F1080302221E
:1042200019460748FDF714F818E000BF40040020C5
:1042300050100020C01A0020881A00208A1A00207E
:104240008C1A0020AA4B0022A3F8382AA84B00227F
:10425000A3F83A2AA64B0022A3F83C2AA44BB3F9B0
:10426000383A9B101BB21846FCF750FB02460B462F
:10427000FCF700FA02460B46104619469AA3D3E90A
:104280000023FCF7ADFB02460B46104619464FF0E3
:104290000002984BFCF7CEFC02460B46944901F510
:1042A000236141E90223924BB3F93A3A9B101BB2C6
:1042B0001846FCF72BFB02460B46FCF7DBF90246DF
:1042C0000B461046194688A3D3E90023FCF788FB68
:1042D00002460B46104619464FF00002854BFCF78C
:1042E000A9FC02460B46824901F52361C1E900237E
:1042F0007F4BB3F93C3A9B101BB21846FCF706FB08
:1043000002460B46FCF7B6F902460B461046194624
:1043100075A3D3E90023FCF763FB02460B46104666
:1043200019464FF00002734BFCF784FC02460B4623
:1043300010461946704BD3E92623FCF799F902463B
:104340000B466B4901F51F61C1E90023684B03F57A
:10435000236353E90201664B03F5236353E9022308
:10436000FCF73EFB02460B4614461D46604B03F528
:104370002363D3E900015E4B03F52363D3E90023F4
:10438000FCF72EFB02460B4620462946FCF772F945
:1043900002460B4614461D46554B03F51F63D3E9F1
:1043A0000001534B03F51F63D3E90023FCF718FB0F
:1043B00002460B4620462946FCF75CF902460B46AE
:1043C00043EC172BB0EE470AF0EE670A06F022FA2C
:1043D000B0EE407AF0EE607A454B03F5236303EDCF
:1043E000027B464B5B7A002B02D0444B00225A7270
:1043F000424BDB6A7B61414BDB6A1B68012B5ED061
:104400003E4BDB6A00221A713C4BDB6A01221A60C8
:1044100079694FF000024FF00003C1E902237B6984
:1044200003F5176319464FF00002354B41E90223AB
:104430007B6903F5176319464FF000024FF0000344
:10444000C1E900237B6901221A7179694FF00002EA
:104450004FF00003C1E902230023FB6118E07A69F1
:10446000FB690233DB00D1184FF000024FF000036C
:10447000C1E900237A69FB690233DB00D1184FF0F0
:1044800000024FF00003C1E90023FB690133FB6127
:10449000FB69B3F5957FE2DD7B6903F51763194688
:1044A0004FF00002164B41E902237B6903F51763C5
:1044B00019464FF000024FF00003C1E900237B6969
:1044C00003F5176353E90223094901F52361C1E9A3
:1044D00000237B69D3E90223054901F51F61C1E986
:1044E00000230023FB611DE008AC1C5A643BCF3F56
:1044F0005010002000408F4040040020C01A0020CF
:104500000000F03F7A69FB690233DB001344D3E912
:104510000023A148F969C9000144C1E90023FB69EE
:104520000133FB61FB69B3F5957FEBDD7B6903F537
:104530001763D3E90023984901F51E61C1E90023FF
:10454000954B03F51F6319464FF000024FF000032F
:1045500041E90223904B03F51E6319464FF0000218
:104560004FF0000341E902238B4B03F51F63D3E9AE
:104570000001894B03F5236353E90223FCF77AF822
:1045800002460B46844901F51F61C1E90023824BB5
:1045900003F51E63D3E900014FF000024FF0000362
:1045A000FCF786FC0346002B1DD07B4B03F52363F1
:1045B000D3E9002310461946FCF7C2FC0346013B31
:1045C000754ADB001344D3E90001734B03F51F6305
:1045D000D3E90023FCF74EF802460B466E4901F57D
:1045E0001F6141E902236C4B03F52363D3E90023E8
:1045F00010461946FCF7A4FC0346591E664B03F50A
:10460000236353E902236448C9000144C1E900233C
:10461000614B03F52363D3E900015BA3D3E90023D6
:10462000FCF746FC0346002B11D15B4B03F52363DB
:10463000D3E900014FF00002584BFCF71BF802468B
:104640000B46554901F52361C1E9002333E0524B84
:1046500003F5236319464FF00002504BC1E90023D4
:104660004D4B03F51F6319464FF000024FF0000356
:10467000C1E9002340F22913FB6119E0464AFB69B6
:10468000DB001344D3E90001FB690133424ADB003C
:104690001344D3E90023FBF7EDFF02460B463E48E7
:1046A000F969C9000144C1E90023FB69013BFB61D1
:1046B000FB69002BE2DA384B03F51E63D3E90001F6
:1046C0004FF000024FF00003FCF7F2FB0346002B13
:1046D00010D0314B03F51F6353E902012CA3D3E93A
:1046E0000023FCF7A7FA02460B462B4901F51E6191
:1046F00041E90223284B03F51F63D3E900237969BD
:10470000C1E902230023FB610FE0234AFB69DB00C0
:104710001344D3E900237869F9690231C9000144DF
:10472000C1E90023FB690133FB61FB69B3F5957FA8
:10473000EBDD194B03F52363D3E90023796901F518
:10474000176141E90223144B03F51E63D3E900010D
:104750004FF000024FF00003FCF7D2FB0346002BA2
:104760001ED00D4B03F51E63D3E900014FF000028C
:104770000A4BFBF77DFF02460B46796901F517618D
:10478000C1E9002316E000BF0000000000B0724045
:104790000000000000C07240501000200000F03FF8
:1047A0007B6903F5176319464FF000024FF00003D1
:1047B000C1E90023B04B93F8583A1846FCF7A6F825
:1047C000AE4BD3E92C230124FCF790FB0346002BCE
:1047D00001D100231C46E3B283F00103DBB2FB7678
:1047E000FB7E002B0AD0A44B03F5236319464FF040
:1047F00000024FF0000341E902234EE09F4BD3E952
:1048000028019D4B03F51E6353E90223FCF7E8F8EA
:1048100002460B4614461D46974B93F8663A1846D7
:10482000FCF764F802460B4620462946FBF720FFBA
:1048300002460B4614461D468F4B93F8683A1846BD
:10484000FCF754F84FF000028D4BFCF7C9F8024614
:104850000B4620462946FCF7C3F802460B46904615
:104860009946864BD3E92A45834B93F8693A184613
:10487000FCF73CF802460B4620462946FCF7B0F808
:1048800002460B4640464946FCF7D4F902460B4621
:10489000794901F5236141E902237A4B03F53A6333
:1048A00053E90245744B03F5236353E9020170A3F6
:1048B000D3E90023FCF794F802460B46204629462C
:1048C000FBF7D8FE02460B466E4901F53A6141E915
:1048D00002236C4B03F53A6353E90245664B93F8A8
:1048E000593A1846FCF712F802460B46204629466C
:1048F000FCF7E8FA0346002B0DD05F4B93F8593ACA
:104900001846FBF7F3FF02460B465E4901F53A6194
:1049100041E9022331E05B4B03F53A6353E9024579
:10492000554B93F85B3A1846FBF7F0FF02460B46EF
:1049300020462946FCF7E4FA0346002B0DD04E4BE7
:1049400093F85B3A1846FBF7D1FF02460B464D49F8
:1049500001F53A6141E902230FE0FB7E002B0CD008
:10496000454B93F8593A1846FBF7C0FF02460B46F1
:10497000444901F53A6141E90223424BD3F8A83B8F
:10498000B3F1FF3F06D03F4BD3F8A83B01333D4A7C
:10499000C2F8A83B3B4B93F8AC3B002B14D1394BEE
:1049A000012283F8AC2B374B022283F8AD2B354B19
:1049B0000022C3F8A82B334B022283F8AF2B3249D5
:1049C0003248FEF705FA20E32E4B93F8AD3B032B5C
:1049D00000F08D81032B00F3F982012B02D0022B12
:1049E0000BD0F3E2BB1C0193274B0093284B294AC1
:1049F00026492948FEF772FD07E31F4B93F8583A02
:104A0000022B04D01C4B93F8583A062B10D11D4BA7
:104A1000002283F8AF2B1B4B012283F8AD2B194BDF
:104A2000022283F8AE2B18491848FEF755FA5DE1CB
:104A3000114B93F8583A012B04D00F4B93F8583A86
:104A4000052B2BD10F4B002283F8AF2B0D4B0322EC
:104A500083F8AD2B0B4B0022C3F8A82B094B022285
:104A600083F8B02B08490A48FEF7BAFA3EE100BFC6
:104A7000FCA9F1D24D62503F5010002040040020AC
:104A800000002440C01A002058260020501A0020A0
:104A9000701A0020581A0020481A0020B14B93F8D1
:104AA000583A032B04D0AF4B93F8583A072B10D148
:104AB000AD4B002283F8AF2BAB4B042283F8AD2B18
:104AC000A94B022283F8B12BA849A948FEF7FCF8AC
:104AD0000CE1A54B93F8AF3B012B72D1A14B03F531
:104AE000186319464FF000024FF00003C1E900239C
:104AF0009C4B03F51C6319464FF000029D4BC1E926
:104B00000023984B03F51B6319464FF00002994BA5
:104B1000C1E90023934B03F51D6319464FF00002D2
:104B20004FF0000341E902238E4B03F51963194648
:104B30004FF000024FF00003C1E90023894B03F559
:104B40001B6319464FF000024FF0000341E90223B6
:104B5000844B03F51D6319464FF000024FF000032C
:104B6000C1E900237F4B03F51C6319464FF0000297
:104B70004FF0000341E902237B4BD3F8A84B794B5C
:104B800003F5206313ED027BB0EE470AF0EE670AEF
:104B900005F066FF53EC102B10461946FCF7F8F9A8
:104BA00003469C42C0F01D826F4B0022C3F8A82B25
:104BB0006D4B022283F8AF2B6C496F48FEF708F962
:104BC0000FE2684B03F51C6319464FF00002694B76
:104BD000C1E90023634B03F51C6319464FF0000243
:104BE0004FF0000341E902235E4B03F519631946B8
:104BF0004FF000024FF00003C1E90023594B03F5C9
:104C00001B6319464FF000024FF0000341E90223F5
:104C1000544B03F51B6319464FF000024FF000039D
:104C2000C1E900234F4B03F51D6319464FF0000205
:104C3000504B41E902234B4B03F51D6319464FF0DE
:104C400000024FF00003C1E90023464B03F518634F
:104C500019464FF00002474BC1E90023424BD3F8FD
:104C6000A84B414B03F53A6393ED007BB0EE470A46
:104C7000F0EE670A05F0F4FE53EC102B10461946CF
:104C8000FCF786F903469C42C0F0AB81364B00220C
:104C9000C3F8A82B344B012283F8AF2B314B03F51B
:104CA0001A6319464FF000024FF0000341E9022356
:104CB0002C4B03F5186319464FF000024FF0000328
:104CC000C1E90023274B03F51B6319464FF000028F
:104CD000284BC1E90023234B03F51D6319464FF010
:104CE00000024FF0000341E902237AE179E11D4B14
:104CF00093F8583A002B04D01A4B93F8583A042BE7
:104D000014D1194B002283F8B02B174B022283F8E1
:104D1000AD2B154B0022C3F8A82B134B022283F8AE
:104D2000AF2B12491448FEF753F84EE10D4B93F8A0
:104D3000583A032B04D00B4B93F8583A072B1DD14C
:104D4000094B002283F8B02B074B042283F8AD2BCC
:104D5000054B022283F8B12B04490548FDF7B4FF47
:104D600033E100BF50100020C01A00205826002058
:104D7000701A00200000F03F501A00209A4B93F860
:104D8000583A022B04D0984B93F8583A062B10D17E
:104D9000964B002283F8B02B944B012283F8AD2B65
:104DA000924B022283F8AE2B91499248FEF794F879
:104DB0000BE18E4B93F8B03B012B72D18A4B03F57C
:104DC000186319464FF000024FF00003C1E90023B9
:104DD000854B03F51C6319464FF00002864BC1E971
:104DE0000023814B03F51B6319464FF000024FF07F
:104DF0000003C1E900237C4B03F51D6319464FF006
:104E000000024FF0000341E90223774B03F51963D9
:104E100019464FF000024FF00003C1E90023724B26
:104E200003F51B6319464FF000024FF0000341E900
:104E300002236D4B03F51D6319464FF000024FF03E
:104E40000003C1E90023684B03F51C6319464FF0CA
:104E50000002694B41E90223644BD3F8A84B624B33
:104E600003F5216393ED007BB0EE470AF0EE670A8D
:104E700005F0F6FD53EC102B10461946FCF788F8A8
:104E800003469C42C0F0C080584B0022C3F8A82BB8
:104E9000564B022283F8B02B55495848FEF7A0F82C
:104EA000B2E0514B03F51C6319464FF00002524B20
:104EB000C1E900234C4B03F51C6319464FF0000277
:104EC0004FF0000341E90223474B03F519631946EC
:104ED0004FF000024FF00003C1E90023424B03F5FD
:104EE0001B6319464FF000024FF0000341E9022313
:104EF0003D4B03F51B6319464FF000024FF00003D2
:104F0000C1E90023384B03F51D6319464FF0000239
:104F10004FF0000341E90223334B03F51D631946AB
:104F20004FF00002344BC1E900232F4B03F5186307
:104F300019464FF00002304BC1E900232B4BD3F848
:104F4000A84B2A4B03F53A6393ED007BB0EE470A7A
:104F5000F0EE670A05F084FD53EC102B104619465D
:104F6000FCF716F803469C424ED3204B0022C3F8B0
:104F7000A82B1E4B012283F8B02B1B4B03F51A63A1
:104F800019464FF000024FF0000341E90223164B8F
:104F900003F5186319464FF000024FF00003C1E912
:104FA0000023114B03F51D6319464FF000024FF02B
:104FB0000003C1E900230C4B03F51C6319464FF0B5
:104FC00000020D4B41E902231EE01DE07B1C019312
:104FD000074B0093094B0A4A0A490648FEF782F834
:104FE00013E000BF11E000BF50100020C01A0020E5
:104FF00058260020501A00200000F03F701A0020B0
:10500000681A0020601A002000BF8B4BD3F81C4B9D
:105010008A4B03F51863D3E9000101231D464FF0C5
:1050200000024FF00003FBF743FF0346002B01D0C3
:1050300000231D46EBB219462046FCF71DFB7E4BB4
:10504000D3F8583B7D4A02F5196212ED027BB0EEAF
:10505000470AF0EE670A1846FCF76CFC764BD3F86B
:10506000084B764B03F51963D3E9000101231D4674
:105070004FF000024FF00003FBF71AFF0346002B2E
:1050800001D000231D46EBB219462046FCF7F4FA86
:10509000694BD3F8803B694A02F51A6212ED027B34
:1050A000B0EE470AF0EE670A1846FCF743FC624B85
:1050B000D3F86C3B614A02F51A6292ED007BB0EEC8
:1050C000470AF0EE670A1846FCF734FC5A4BD3F84F
:1050D000CC4A5A4B03F51B6353E9020101231D46D9
:1050E0004FF000024FF00003FBF7E2FE0346002BF7
:1050F00001D000231D46EBB219462046FCF7BCFA4E
:105100004D4BD3F8B84A4D4B03F51B63D3E900016F
:1051100001231D464FF000024FF00003FBF7C8FECD
:105120000346002B01D000231D46EBB21946204652
:10513000FCF7A2FA404BD3F8A44A404B03F51C639A
:1051400053E9020101231D464FF000024FF0000316
:10515000FBF7AEFE0346002B01D000231D46EBB249
:1051600019462046FCF788FA334BD3F8444B334BAF
:1051700003F51C63D3E9000101231D464FF0000233
:105180004FF00003FBF794FE0346002B01D00023F1
:105190001D46EBB219462046FCF76EFA264BD3F8B3
:1051A000304B264B03F51D6353E9020101231D46D5
:1051B0004FF000024FF00003FBF77AFE0346002B8E
:1051C00001D000231D46EBB219462046FCF754FAE5
:1051D000194BD3F8F44A194B03F51D63D3E90001C9
:1051E00001231D464FF000024FF00003FBF760FE65
:1051F0000346002B01D000231D46EBB21946204682
:10520000FCF73AFA0C4BD3F8E03A0C4A92F86A2AC7
:1052100011461846FCF730FA074BD3F8903A074A84
:1052200092F86B2A11461846FCF726FA00BF203781
:10523000BD46BDE8B08300BFC01A0020501000205A
:1052400080B582B000AF674BD3E92E23664901F5E4
:105250003A6141E9022300F07BFC644B012283F8B0
:105260006A2A614B002283F8402A5E4BD3E900236F
:105270005D4901F5266141E902235B4B0122C3F838
:10528000442A00210020FCF74FF90346564AC2F891
:10529000503A554B012283F8482A534B002283F899
:1052A000202A504BD3E902234F4901F5246141E9FB
:1052B00002234D4B0122C3F8242A00210120FCF7D0
:1052C00033F90346484AC2F8303A474B012283F883
:1052D000282A454B0022C3F8642A434B002283F856
:1052E000602A404BD3E908233F4901F5286141E991
:1052F00002233F48FEF7EEFA3B4B002283F8002AD8
:10530000384BD3E90423384901F5226141E90223EE
:10531000354B0122C3F8042A00211020FCF704F9C0
:105320000346314AC2F8103A2F4B012283F8082A6B
:105330002D4B002283F8E0292A4BD3E906232A4982
:1053400001F5206141E90223274B0122C3F8E4293A
:1053500000211120FCF7E8F80346234AC2F8F0398F
:10536000214B012283F8E8291F4B0022C3F8B429FE
:105370001D4B0022C3F8CC291B4B002283F8C829FF
:10538000194B002283F8B029164BD3E90C23164998
:1053900001F51C61C1E900231648FEF7C5FA124B5E
:1053A00000225A60104B4FF0FF321A630E4B4FF041
:1053B000FF325A630C4B00221A700B48FEF758FB61
:1053C000094BDB6A3B603B681B68012B39D13968AC
:1053D0004FF000024FF00003C1E9022300237B607D
:1053E00018E000BF40040020C01A00205010002028
:1053F00020250020702400203A687B680233DB00FF
:10540000D1184FF000024FF00003C1E900237B6880
:1054100001337B607B68B3F5957FEDDD3B6803F579
:10542000176319464FF000029B4B41E902233B688A
:1054300003F5176319464FF000024FF00003C1E96E
:105440000023964B002283F80C2B944B0122C3F8C7
:10545000102B01210220FCF767F803468F4AC2F89F
:105460001C3B8E4B012283F8142B8C4B002283F8BB
:10547000482B8A4B0122C3F84C2B9FED831B9FEDD9
:10548000840B0320FCF79AF90346844AC2F8583B80
:10549000824BD3F8583B1846FCF742FA7F4B012267
:1054A00083F8502B7D4B002283F8F82A7B4B012296
:1054B000C3F8FC2A01210420FCF736F80346774A9A
:1054C000C2F8083B754B012283F8002B734B002276
:1054D00083F8702B714B0122C3F8742B9FED6A1B6C
:1054E0009FED6B0B0520FCF769F903466B4AC2F888
:1054F000803B6A4BD3F8803B1846FCF711FA674BA8
:10550000012283F8782B654B002283F85C2B634BD8
:105510000122C3F8602B9FED5C1B9FED5D0B062005
:10552000FCF74CF903465D4AC2F86C3B5B4BD3F881
:105530006C3B1846FCF7F4F9584B012283F8642BB6
:10554000564B002283F8BC2A544B0122C3F8C02AD0
:1055500001210720FBF7E8FF0346504AC2F8CC3A86
:105560004E4B012283F8C42A4C4B002283F8A82A10
:105570004A4B0122C3F8AC2A01210820FBF7D4FFD3
:105580000346464AC2F8B83A444B012283F8B02A8F
:10559000424B002283F8942A404B0122C3F8982AF8
:1055A00001210920FBF7C0FF03463C4AC2F8A43A98
:1055B0003A4B012283F89C2A384B002283F8342B83
:1055C000364B0122C3F8382B01210A20FBF7ACFF30
:1055D0000346324AC2F8443B304B012283F83C2B4D
:1055E0002E4B002283F8202B2C4B0122C3F8242BB6
:1055F00001210B20FBF798FF0346284AC2F8303BF5
:10560000264B012283F8282B244B002283F8E42A1E
:10561000224B0122C3F8E82A01210C20FBF784FF6A
:1056200003461E4AC2F8F43A1C4B012283F8EC2AC6
:105630001A4B002283F8D02A184B0122C3F8D42A2F
:1056400001210D20FBF770FF0346144AC2F8E03A2F
:10565000124B012283F8D82A104B002283F8802AAB
:105660000E4B0122C3F8842A01212B20FBF75CFF9B
:1056700003460A4AC2F8903A084B012283F8882A66
:1056800000BF0837BD4680BD0000000000000000DC
:105690000000000000409F400000F03FC01A0020C2
:1056A00080B582B000AFAC4B93F8403A002B13D1D9
:1056B000A94B012283F8402AA74BD3F8443A012B87
:1056C0000AD1A54B93F8483A002B05D0A24BD3F84A
:1056D000503A1846FCF70FF89F4B93F8203A002BEE
:1056E00013D19D4B012283F8202A9B4BD3F8243AF7
:1056F000012B0AD1984B93F8283A002B05D0964BF2
:10570000D3F8303A1846FBF7F6FF934B93F8603A1C
:10571000002B13D1904B012283F8602A8E4BD3F8D3
:10572000643A012B0AD18C4B93F8683A002B05D0D0
:10573000894BD3F8703A1846FCF73CFD864B93F83A
:10574000003A002B13D1844B012283F8002A824BAC
:10575000D3F8043A012B0AD17F4B93F8083A002B77
:1057600005D07D4BD3F8103A1846FBF7C4FF7A4BAF
:1057700093F8E039002B13D1774B012283F8E0290D
:10578000754BD3F8E439012B0AD1734B93F8E83900
:10579000002B05D0704BD3F8F0391846FBF7ABFF60
:1057A00000F0D2FA6C4B93F8B039002B13D16A4B4E
:1057B000012283F8B029684BD3F8B439012B0AD100
:1057C000654B93F8B839002B05D0634BD3F8D83923
:1057D0001846FDF7F0F9614B7B607B681B78002B66
:1057E00009D17B6801221A707B685B68012B02D1AA
:1057F0007B6802225A60584B1B78002B1CD1564BF9
:1058000001221A70544B5B68012B15D1524B1B7A45
:10581000002B11D0504BDB6A3B603B681B68012BAF
:1058200002D13B6802221A604B4B4FF0FF321A63E1
:10583000494B4FF0FF325A63474B93F80C3B002B18
:1058400013D1454B012283F80C2B434BD3F8103B6B
:10585000012B0AD1404B93F8143B002B05D03E4B53
:10586000D3F81C3B1846FBF746FF3B4B93F8483BED
:10587000002B19D1384B012283F8482B364BD3F833
:105880004C3B012B10D1344B93F8503B002B0BD0E9
:10589000314BD3F8583B1846FCF78AF82E4BD3F817
:1058A000583B1846FCF79AF82B4B93F8F83A002B24
:1058B00013D1294B012283F8F82A274BD3F8FC3A5D
:1058C000012B0AD1244B93F8003B002B05D0224B2F
:1058D000D3F8083B1846FBF70EFF1F4B93F8703BBD
:1058E000002B19D11C4B012283F8702B1A4BD3F8D3
:1058F000743B012B10D1184B93F8783B002B0BD045
:10590000154BD3F8803B1846FCF752F8124BD3F8EE
:10591000803B1846FCF762F80F4B93F85C3B002B7A
:105920001ED10D4B012283F85C2B0B4BD3F8603B4F
:10593000012B15D1084B93F8643B002B10D0064B7C
:10594000D3F86C3B1846FCF733F8034BD3F86C3BA9
:105950001846FCF743F803E0C01A00208824002012
:10596000654B93F8BC3A002B13D1634B012283F8AB
:10597000BC2A614BD3F8C03A012B0AD15E4B93F895
:10598000C43A002B05D05C4BD3F8CC3A1846FBF751
:10599000B2FE594B93F8A83A002B13D1564B012273
:1059A00083F8A82A544BD3F8AC3A012B0AD1524BB6
:1059B00093F8B03A002B05D04F4BD3F8B83A1846BD
:1059C000FBF799FE4C4B93F8943A002B13D14A4BBA
:1059D000012283F8942A484BD3F8983A012B0AD134
:1059E000454B93F89C3A002B05D0434BD3F8A43A8F
:1059F0001846FBF780FE404B93F8343B002B13D145
:105A00003D4B012283F8342B3B4BD3F8383B012B21
:105A10000AD1394B93F83C3B002B05D0364BD3F8D9
:105A2000443B1846FBF767FE334B93F8203B002BB3
:105A300013D1314B012283F8202B2F4BD3F8243B79
:105A4000012B0AD12C4B93F8283B002B05D02A4B75
:105A5000D3F8303B1846FBF74EFE274B93F8E43A59
:105A6000002B13D1244B012283F8E42A224BD3F8D4
:105A7000E83A012B0AD1204B93F8EC3A002B05D0E1
:105A80001D4BD3F8F43A1846FBF735FE1A4B93F842
:105A9000D03A002B13D1184B012283F8D02A164B91
:105AA000D3F8D43A012B0AD1134B93F8D83A002BF0
:105AB00005D0114BD3F8E03A1846FBF71CFE0E4B0D
:105AC00093F8803A002B13D10B4B012283F8802AE4
:105AD000094BD3F8843A012B0AD1074B93F8883A43
:105AE000002B05D0044BD3F8903A1846FBF703FE81
:105AF00000BF0837BD4680BDC01A002080B584B005
:105B000000AF78607B6801225A600023FB6007F1D8
:105B10000C000A234FF0FF320021FBF7B9FF0246C9
:105B20007B681A617B681B694FF4E1311846FCF70A
:105B30008FFA7B681869012300220821FCF794FA88
:105B40007B6801221A7200BF1037BD4680BD00007D
:105B500080B500AF064B0022C3F8882B044B00220F
:105B600083F8842B0348FFF7C9FF00BF80BD00BF47
:105B7000C01A00204426002080B58AB000AF6B4BCD
:105B800003F524631A68694B03F648231A60674BD0
:105B900003F644231A68654B03F64C231A6004226B
:105BA00063496448FBF754FB042263496348FBF7ED
:105BB0004FFB634BD3E90A014FF000024FF00003A3
:105BC000FBF776F90346002B48D1584B93F8583A27
:105BD0003B70564B93F8593A7B70544B93F85A3AB2
:105BE000BB70524B93F85B3AFB70504B93F85C3AA6
:105BF0003B714E4B93F85D3A7B714C4B93F85E3A98
:105C0000BB714A4B93F85F3AFB71484B93F8603A8B
:105C10003B72464B93F8613A7B72444B93F8623A7D
:105C2000BB72424B93F8633AFB72404B93F8643A71
:105C30003B733E4B93F8653A7B733C4B93F8663A63
:105C4000BB733A4B93F8673AFB73384B93F8683A57
:105C50003B74364B93F8693A7B7447E0334B93F8C7
:105C6000503A3B70314B93F8513A7B702F4B93F87D
:105C7000523ABB702D4B93F8533AFB702B4B93F871
:105C8000543A3B71294B93F8553A7B71274B93F863
:105C9000563ABB71254B93F8573AFB71284B93F852
:105CA000C8303B72264B93F8C8307B72244B93F874
:105CB000C830BB72224B93F8C830FB72204B93F86C
:105CC000C8303B731E4B93F8C8307B731C4B93F862
:105CD000C830BB731A4B93F8C830FB73184B93F85A
:105CE000C8303B74164B93F8C8307B74012387F897
:105CF000273012E0394607F1140312221846FBF749
:105D0000A7FA104BD3F8943B07F11401122218465E
:105D1000FCF710FA034687F8273097F82730002B56
:105D2000E8D100BF00BF2837BD4680BD501000201D
