:1000000000000020BD040000176A00001D6A000007
:10001000236A0000296A00002F6A00000000000027
:100020000000000000000000000000002D0500009E
:10003000356A000000000000D30500003306000010
:10004000D5680000E3680000F1680000FF68000068
:100050000D6900001B690000296900003769000074
:100060004569000053690000616900006F69000084
:100070007D6900008B69000099690000A769000094
:10008000B56900003B6A0000416A0000476A000051
:100090004D6A0000536A0000596A00005F6A000060
:1000A000656A00006B6A0000716A0000776A0000F0
:1000B0007D6A0000836A0000896A0000C36900004D
:1000C0008F6A0000D1690000956A0000DF690000B6
:1000D0009B6A0000ED690000A16A0000A76A0000A9
:1000E000AD6A0000B36A0000B96A0000BF6A000090
:1000F000C56A0000CB6A0000D16A0000D76A000020
:10010000CD040000CD040000CD040000CD040000AB
:10011000DD6A0000E36A0000E96A0000EF6A00009F
:10012000F56A0000FB6A0000016B0000076B00002D
:100130000D6B0000136B0000196B00001F6B0000BB
:10014000256B00002B6B0000FB690000316B000089
:10015000096A0000376B00003D6B0000436B000034
:10016000496B00004F6B0000556B00005B6B00009B
:10017000616B0000676B00006D6B0000736B00002B
:10018000796B0000CD040000CD040000CD04000018
:10019000CD040000CD040000CD040000CD0400001B
:1001A000CD040000CD040000CD040000CD0400000B
:1001B000CD040000CD040000CD040000CD040000FB
:1001C000CD040000CD040000CD040000CD040000EB
:1003F000CD040000CD040000CD040000FFFFFFFF8E
:10040000FFFFFFFFFFFFFFFFFFFFFFFFFEFFFFFFFD
:10044000A3F5803A704700BF174B002B08BF134B32
:100450009D46FFF7F5FF00218B460F461348144ACF
:10046000121A0DF03FFE0E4B002B00D098470D4B9B
:10047000002B00D098470020002104000D000D48FB
:10048000002802D00C480BF035FE0DF06BFF200069
:10049000290002F011FD0BF033FE00BF0000080040
:1004A00000000000016D000000000020200E002070
:1004B000F05B0020F5C00000ADE3000072B605F06F
:1004C00027FE05F0BDFD62B6FFF7BEFFFFF7FEBFDA
:1004D00080F309887047EFF309807047684680F31E
:1004E00009885A480078C00714BF0220032080F30F
:1004F00014887047DFF858C1EFF305831B0618BF57
:100500006047EFF31483DB0708BF604700DF7047E5
:10051000DFF840C1EFF305831B0618BF6047EFF318
:100520001483DB0708BF604700DF7047EFF30980E3
:10053000816911F8021CE1BB90E80F1010B5E0478B
:10054000BDE81040EFF3098C8CE80700424B93E8BC
:100550000600914208BF704741B91EF0100F16D136
:100560003E49086820F00100086010E01EF0100FFE
:1005700006BF2CED108A0120002081F825002CE90F
:10058000F00FC1F828C00CB407F042FE0CBC1A6092
:10059000D2F828C0BCE8F00F92F8250000280EBF62
:1005A0006FF0020E6FF0120EBCEC108A8CF309880B
:1005B000704710B52A4A1268914209D8294C54F85C
:1005C000214090E80F10A047EFF3098C8CE80F0052
:1005D00010BD10B507F08EFDBDE810401E4B93E82E
:1005E0000600914208BF7047EFF3098C1EF0100F10
:1005F00006BF2CED108A0120002081F825002CE98F
:10060000F00FC1F828C00CB407F002FE0CBC1A6051
:10061000D2F828C0BCE8F00F92F8250000280EBFE1
:100620006FF0020E6FF0120EBCEC108A8CF309888A
:10063000704710B507F0CEFDFFF7CEBF10B507F03D
:10064000C7FD07F0C7FDFFF7C7BF0000ECF30000D0
:10065000817A00009D7A0000B45B002034EF00E056
:1006600000000000FCFFFFFF81F0004102E000BF3E
:1006700083F0004330B54FEA41044FEA430594EA62
:10068000050F08BF90EA020F1FBF54EA000C55EA9D
:10069000020C7FEA645C7FEA655C00F0E2804FEA6E
:1006A0005454D4EB5555B8BF6D420CDD2C4480EA50
:1006B000020281EA030382EA000083EA010180EA80
:1006C000020281EA0303362D88BF30BD11F0004FCE
:1006D0004FEA01314FF4801C4CEA113102D0404204
:1006E00061EB410113F0004F4FEA03334CEA13333F
:1006F00002D0524263EB430394EA050F00F0A78057
:10070000A4F10104D5F1200E0DDB02FA0EFC22FA51
:1007100005F2801841F1000103FA0EF2801843FA45
:1007200005F359410EE0A5F120050EF1200E012A36
:1007300003FA0EFC28BF4CF0020C43FA05F3C01874
:1007400051EBE37101F0004507D54FF0000EDCF1ED
:10075000000C7EEB00006EEB0101B1F5801F1BD396
:10076000B1F5001F0CD349085FEA30004FEA3C0C9A
:1007700004F101044FEA445212F5800F80F09A8090
:10078000BCF1004F08BF5FEA500C50F1000041EB94
:10079000045141EA050130BD5FEA4C0C404141EB98
:1007A0000101013C28BFB1F5801FE9D291F0000F93
:1007B00004BF01460020B1FA81F308BF2033A3F142
:1007C0000B03B3F120020CDA0C3208DD02F1140C39
:1007D000C2F10C0201FA0CF021FA02F10CE002F174
:1007E0001402D8BFC2F1200C01FA02F120FA0CFC6D
:1007F000DCBF41EA0C019040E41AA2BF01EB0451B6
:10080000294330BD6FEA04041F3C1CDA0C340EDCB3
:1008100004F11404C4F1200220FA04F001FA02F3F6
:1008200040EA030021FA04F345EA030130BDC4F1B4
:100830000C04C4F1200220FA02F001FA04F340EAA9
:100840000300294630BD21FA04F0294630BD94F05A
:10085000000F83F4801306BF81F480110134013D41
:100860004EE77FEA645C18BF7FEA655C29D094EAB2
:10087000050F08BF90EA020F05D054EA000C04BF30
:100880001946104630BD91EA030F1EBF002100201B
:1008900030BD5FEA545C05D14000494128BF41F0BA
:1008A000004130BD14F580043CBF01F5801130BD1E
:1008B00001F0004545F0FE4141F470014FF00000A9
:1008C00030BD7FEA645C1ABF194610467FEA655C5A
:1008D0001CBF0B46024650EA013406BF52EA0335FC
:1008E00091EA030F41F4002130BD00BF90F0000FEA
:1008F00004BF0021704730B54FF4806404F1320426
:100900004FF000054FF0000150E700BF90F0000FDE
:1009100004BF0021704730B54FF4806404F1320405
:1009200010F0004548BF40424FF000013EE700BFD5
:1009300042004FEAE2014FEA31014FEA02701FBF65
:1009400012F07F4393F07F4F81F06051704732F097
:100950007F4208BF704793F07F4F04BF41F40021EE
:10096000704730B54FF4607401F0004521F000414C
:100970001CE700BF50EA010208BF704730B54FF0D6
:1009800000050AE050EA010208BF704730B511F0D7
:10099000004502D5404261EB41014FF4806404F10F
:1009A00032045FEA915C3FF4D8AE4FF003025FEA95
:1009B000DC0C18BF03325FEADC0C18BF033202EB19
:1009C000DC02C2F1200300FA03FC20FA02F001FA73
:1009D00003FE40EA0E0021FA02F11444BDE600BF16
:1009E00070B54FF0FF0C4CF4E06C1CEA11541DBFC5
:1009F0001CEA135594EA0C0F95EA0C0F00F0DEF890
:100A00002C4481EA030621EA4C5123EA4C5350EA74
:100A1000013518BF52EA033541F4801143F48013C5
:100A200038D0A0FB02CE4FF00005E1FB02E506F056
:100A30000042E0FB03E54FF00006E1FB03569CF0AB
:100A4000000F18BF4EF0010EA4F1FF04B6F5007FB1
:100A500064F5407404D25FEA4E0E6D4146EB060623
:100A600042EAC62141EA55514FEAC52040EA5E50AC
:100A70004FEACE2EB4F1FD0C88BFBCF5E06F1ED856
:100A8000BEF1004F08BF5FEA500E50F1000041EB8D
:100A9000045170BD06F0004646EA010140EA02003A
:100AA00081EA0301B4EB5C04C2BFD4EB0C0541EA5C
:100AB000045170BD41F480114FF0000E013C00F371
:100AC000AB8014F1360FDEBF002001F0004170BD95
:100AD000C4F10004203C35DA0C341BDC04F11404AE
:100AE000C4F1200500FA05F320FA04F001FA05F23A
:100AF00040EA020001F0004221F0004110EBD37007
:100B000021FA04F642EB06015EEA430E08BF20EA32
:100B1000D37070BDC4F10C04C4F1200500FA04F3D5
:100B200020FA05F001FA04F240EA020001F0004167
:100B300010EBD37041F100015EEA430E08BF20EADA
:100B4000D37070BDC4F1200500FA05F24EEA020E22
:100B500020FA04F301FA05F243EA020321FA04F051
:100B600001F0004121FA04F220EA020000EBD37008
:100B70005EEA430E08BF20EAD37070BD94F0000F08
:100B80000FD101F00046400041EB010111F4801F3C
:100B900008BF013CF7D041EA060195F0000F18BFED
:100BA000704703F00046520043EB030313F4801F29
:100BB00008BF013DF7D043EA0603704794EA0C0FE3
:100BC0000CEA135518BF95EA0C0F0CD050EA4106F9
:100BD00018BF52EA4306D1D181EA030101F0004176
:100BE0004FF0000070BD50EA410606BF104619469E
:100BF00052EA430619D094EA0C0F02D150EA0136AA
:100C000013D195EA0C0F05D152EA03361CBF1046EA
:100C100019460AD181EA030101F0004141F0FE4189
:100C200041F470014FF0000070BD41F0FE4141F40D
:100C3000780170BD70B54FF0FF0C4CF4E06C1CEA0D
:100C400011541DBF1CEA135594EA0C0F95EA0C0FC2
:100C500000F0A7F8A4EB050481EA030E52EA03357D
:100C60004FEA013100F088804FEA03334FF080559E
:100C700045EA131343EA12634FEA022245EA1115CB
:100C800045EA10654FEA00260EF000419D4208BF7C
:100C9000964244F1FD0404F5407402D25B084FEA29
:100CA0003202B61A65EB03055B084FEA32024FF4D5
:100CB00080104FF4002CB6EB020E75EB030E22BF32
:100CC000B61A754640EA0C005B084FEA3202B6EBF2
:100CD000020E75EB030E22BFB61A754640EA5C00A1
:100CE0005B084FEA3202B6EB020E75EB030E22BF31
:100CF000B61A754640EA9C005B084FEA3202B6EB32
:100D0000020E75EB030E22BFB61A754640EADC00F0
:100D100055EA060E18D04FEA051545EA16754FEA52
:100D200006164FEAC30343EA52734FEAC2025FEA70
:100D30001C1CC0D111F4801F0BD141EA00014FF0FF
:100D400000004FF0004CB6E711F4801F04BF0143D0
:100D50000020B4F1FD0C88BFBCF5E06F3FF6AFAEEC
:100D6000B5EB030C04BFB6EB020C5FEA500C50F17C
:100D7000000041EB045170BD0EF0004E4EEA1131FF
:100D800014EB5C04C2BFD4EB0C0541EA045170BD06
:100D900041F480114FF0000E013C90E645EA060E4A
:100DA0008DE60CEA135594EA0C0F08BF95EA0C0F78
:100DB0003FF43BAF94EA0C0F0AD150EA01347FF4C0
:100DC00034AF95EA0C0F7FF425AF104619462CE797
:100DD00095EA0C0F06D152EA03353FF4FDAE1046FA
:100DE000194622E750EA410618BF52EA43067FF44B
:100DF000C5AE50EA41047FF40DAF52EA43057FF4DB
:100E0000EBAE12E74FF0FF3C06E000BF4FF0010CE5
:100E100002E000BF4FF0010C4DF804CD4FEA410C49
:100E20007FEA6C5C4FEA430C18BF7FEA6C5C1BD016
:100E300001B050EA410C0CBF52EA430C91EA030F97
:100E400002BF90EA020F0020704710F1000F91EAF4
:100E5000030F58BF994208BF90422CBFD8176FEAC2
:100E6000E37040F0010070474FEA410C7FEA6C5C90
:100E700002D150EA013C07D14FEA430C7FEA6C5C97
:100E8000D6D152EA033CD3D05DF8040B704700BFC3
:100E90008446104662468C461946634600E000BF11
:100EA00001B5FFF7B7FF002848BF10F1000F01BDE3
:100EB0004DF808EDFFF7F4FF0CBF012000205DF8AE
:100EC00008FB00BF4DF808EDFFF7EAFF34BF012033
:100ED00000205DF808FB00BF4DF808EDFFF7E0FFCC
:100EE00094BF012000205DF808FB00BF4DF808ED1D
:100EF000FFF7CEFF94BF012000205DF808FB00BF84
:100F00004DF808EDFFF7C4FF34BF012000205DF865
:100F100008FB00BF4FEA410C7FEA6C5C02D150EA4B
:100F2000013C0AD14FEA430C7FEA6C5C02D152EAE1
:100F3000033C02D14FF0000070474FF001007047B2
:100F40004FEA410212F5001215D211D56FF47873F1
:100F5000B3EB625212D94FEAC12343F0004343EA94
:100F6000505311F0004F23FA02F018BF404270476F
:100F70004FF00000704750EA013005D111F00040F9
:100F800008BF6FF0004070474FF00000704700BF8F
:100F90004A0011D212F5001211D20DD56FF47873F8
:100FA000B3EB62520ED44FEAC12343F0004343EA4D
:100FB000505323FA02F070474FF00000704750EA98
:100FC000013002D14FF0FF3070474FF00000704702
:100FD0004FEA4102B2F1E04324BFB3F5001CDCF15B
:100FE000FE5C0DD901F0004C4FEAC0024CEA507093
:100FF000B2F1004F40EB830008BF20F001007047C2
:1010000011F0804F21D113F13872BCBF01F00040C4
:10101000704741F480114FEA5252C2F11802C2F1F6
:10102000200C10FA0CF320FA02F018BF40F0010077
:101030004FEAC1234FEAD32303FA0CFC40EA0C0029
:1010400023FA02F34FEA4303CCE77FEA625307D166
:1010500050EA01331EBF4FF0FE4040F4400070479D
:1010600001F0004040F0FE4040F40000704700BF37
:1010700053B94AB9002908BF00281CBF4FF0FF31FF
:101080004FF0FF3000F0E2B8ADF1080C6DE904CE8E
:101090000AF046F8DDF804E0DDE9022304B0704709
:1010A00000F1340191E838009C46A6464CF8045DF6
:1010B00090E8FF0FE54600BD90EC210B704700BFA4
:1010C00080EC210B704700BF90EC200B704700BFF5
:1010D00080EC200B704700BFD0EC200B704700BFA6
:1010E000C0EC200B704700BFF0EC0201F0EC0211E5
:1010F000F0EC0221F0EC0231F0EC0241F0EC025194
:10110000F0EC0261F0EC0271F0EC0281F0EC029183
:10111000F0EC02A1F0EC02B1F0EC02C1F0EC02D173
:10112000F0EC02E1F0EC02F1704700BFE0EC0201EC
:10113000E0EC0211E0EC0221E0EC0231E0EC0241D3
:10114000E0EC0251E0EC0261E0EC0271E0EC0281C3
:10115000E0EC0291E0EC02A1E0EC02B1E0EC02C1B3
:10116000E0EC02D1E0EC02E1E0EC02F1704700BFFC
:10117000B0FC0181B0FC0191B0FC01A1B0FC01B157
:10118000704700BFA0FC0181A0FC0191A0FC01A15F
:10119000A0FC01B1704700BFEC4600B52DE900503E
:1011A0002DE9FF1F4FF000032DE90C0001A90AF003
:1011B0006BFADDF840E012B0704700BFEC4600B5B6
:1011C0002DE900502DE9FF1F4FF000032DE90C0021
:1011D00001A90AF095FADDF840E012B0704700BFAF
:1011E000EC4600B52DE900502DE9FF1F4FF000033C
:1011F0002DE90C0001A90AF0A5FADDF840E012B0D3
:10120000704700BFEC4600B52DE900502DE9FF1FE7
:101210004FF000032DE90C0001AB0AF069FADDF88C
:1012200040E012B0704700BFEC4600B52DE9005019
:101230002DE9FF1F4FF000032DE90C0001AA0AF071
:10124000D5FADDF840E012B0704700BF704700BF2C
:1012500001F0FF01102A2BDB10F0070F08D010F867
:10126000013B013A8B422DD010F0070F42B3F6D16B
:10127000F0B441EA012141EA014122F007047FF084
:1012800000070023F0E80256083C85EA010586EADB
:10129000010685FA47F5A3FA87F586FA47F6A5FA17
:1012A00087F68EB9EED1F0BC01F0FF0102F0070223
:1012B00032B110F8013B013A83EA010313B1F8D1CE
:1012C0000020704701387047002D06BF35460338AF
:1012D000073815F0010F07D1013015F4807F02BFE8
:1012E000013015F4C03F0130F0BC0138704700BF39
:1012F000844641EA000313F003036DD1403A41D321
:1013000051F8043B40F8043B51F8043B40F8043BDF
:1013100051F8043B40F8043B51F8043B40F8043BCF
:1013200051F8043B40F8043B51F8043B40F8043BBF
:1013300051F8043B40F8043B51F8043B40F8043BAF
:1013400051F8043B40F8043B51F8043B40F8043B9F
:1013500051F8043B40F8043B51F8043B40F8043B8F
:1013600051F8043B40F8043B51F8043B40F8043B7F
:1013700051F8043B40F8043B51F8043B40F8043B6F
:10138000403ABDD2303211D351F8043B40F8043B0F
:1013900051F8043B40F8043B51F8043B40F8043B4F
:1013A00051F8043B40F8043B103AEDD20C3205D31F
:1013B00051F8043B40F8043B043AF9D2043208D017
:1013C000D2071CBF11F8013B00F8013B01D30B8889
:1013D00003806046704700BF082A13D38B078DD067
:1013E00010F003038AD0C3F10403D21ADB071CBF39
:1013F00011F8013B00F8013B80D331F8023B20F8A3
:10140000023B7BE7043AD9D3013A11F8013B00F8DB
:10141000013BF9D20B7803704B7843708B78837063
:10142000604670470000000000000000000000005F
:1014300000000000000000000000000000000000AC
:1014400090F800F06DE9024520F007016FF0000C04
:1014500010F0070491F820F040F049804FF00004AC
:101460006FF00700D1E9002391F840F000F1080087
:1014700082FA4CF2A4FA8CF283FA4CF3A2FA8CF3BF
:101480004BBBD1E9022382FA4CF200F10800A4FA26
:101490008CF283FA4CF3A2FA8CF3E3B9D1E904237A
:1014A00082FA4CF200F10800A4FA8CF283FA4CF3B1
:1014B000A2FA8CF37BB9D1E9062301F1200182FA6B
:1014C0004CF200F10800A4FA8CF283FA4CF3A2FA71
:1014D0008CF3002BC6D0002A04BF04301A4612BA7F
:1014E000B2FA82F2FDE8024500EBD2007047D1E982
:1014F000002304F00305C4F100004FEAC50514F011
:10150000040F91F840F00CFA05F562EA05021CBFE1
:1015100063EA050362464FF00004A9E70348044B61
:10152000834202D0034B03B118477047200E0020BE
:10153000200E0020000000000548064B1B1AD90FA2
:1015400001EBA301491002D0034B03B118477047C8
:10155000200E0020200E00200000000010B5064CD8
:10156000237843B9FFF7DAFF044B13B10448AFF314
:1015700000800123237010BD230E00200000000016
:101580002406010008B5054B1BB105490548AFF31A
:101590000080BDE80840FFF7CFBF00BF000000009B
:1015A000240E00202406010080B590B000AF7860C2
:1015B0000B46FB70FB78002B27D107F12403002298
:1015C0001A605A609A60DA601A615A612D4A7B6823
:1015D00052F833307B62012387F82830012387F8E3
:1015E00029304FF0FF333B6307F12403184608F01E
:1015F0004FF9244A7B68DB00134401221A717B688F
:10160000DB00204A1344FB6336E0FB78012B31D129
:1016100007F10C0300221A605A609A60DA601A61BE
:101620005A61184A7B6852F83330FB6001233B75DE
:101630004FF0FF33BB6107F10C03184608F09AF92D
:10164000104A7B68DB00134402221A717B68292B45
:101650000AD97B682C2B07D80A4A7B6852F83330AA
:101660000121184608F0C2F97B68DB00054A1344E3
:10167000FB6301E00023FB63FB6B18464037BD466C
:1016800080BD00BF0000002080B586B000AF78604C
:101690007B683B613B69002B0BD03B691B79012BBD
:1016A00007D13B691B68184608F0AEF90346FB7585
:1016B00001E00023FB753B691B681B0ADBB2FB6082
:1016C0003B691B68DBB2BB60FB68022B02D1BB68C5
:1016D000062B05D0FB68002B09D1BB68042B06D173
:1016E000FB7D002B0CBF01230023DBB2FB75FB7DD0
:1016F00018461837BD4680BD80B586B000AF78600B
:101700000B46FB707B687B617B69002B2FD07B696C
:101710001B79022B2BD17B691B681B0ADBB23B6157
:101720007B691B68DBB2FB603B69012B05D1FB6861
:10173000162B08D0FB68152B05D03B69042B0FD165
:10174000FB681A2B0CD17B691A68FB78012B14BF3C
:1017500001230023DBB21946104608F047F906E0E2
:101760007B691B68FA781146184608F03FF900BFFC
:101770001837BD4680BD80B485B000AF78607B6807
:10178000FB60FB68002B0ED0FB681B79022B03D19A
:10179000FB6800221A7106E0FB681B79012B02D15D
:1017A000FB6800221A7100BF1437BD465DF8047B48
:1017B0007047000080B584B000AFF860B960134690
:1017C000FB71BB681F2B05D90D4B0E4AFF210E483C
:1017D0000AF070FCFB68BA6853F8223023F080737B
:1017E00023F4E063FA79120202F4E06243EA0201B0
:1017F000FB68BA6843F8221000BF1037BD4680BDB1
:10180000C8F00000D0F20000D4F0000080B483B033
:1018100000AF78600B46FB707B681B6823F01802F2
:10182000FB78DB0003F018031A437B681A6000BFE3
:101830000C37BD465DF8047B7047000080B58EB064
:1018400000AF786187ED020B87ED001B524A7B6980
:101850005B01134411331B78002B40F08780002379
:1018600087F82830002387F82930002387F82A30AA
:101870008023FB62484A7B695B0113441868464A2F
:101880007B695B01134404331968434A7B695B013C
:10189000134410331B781A46FFF78CFF3E4A7B69CE
:1018A0005B01134408331B6807F1280211461846F0
:1018B00007F040FE384A7B695B01134408331B681C
:1018C000DBB200220121184607F0BAFE324A7B69DA
:1018D0005B011344113304221A702F4A7B695B01A8
:1018E000134403F11801D7E90223C1E900230223BD
:1018F0003B7600237B76284A7B695B0113441833CF
:10190000D3E9002310461946FFF742FB0346FB616B
:10191000D7E90001FFF73CFB03463B620023BB8491
:101920001D4A7B695B01134408331B681B4A52F84C
:1019300023303B630021386BFFF768FF164A7B6951
:101940005B01134408331868134A7B695B01134435
:101950000C331B68DAB207F11803194607F0CCFE06
:101960007B695B010C4A13447B630FE00A4A7B6985
:101970005B01134411331B78042B05D17B695B0198
:10198000054A13447B6301E000237B637B6B1846AD
:101990003837BD4680BD00BF7801002008FD00003B
:1019A00080B483B000AF786000BF0C37BD465DF8EF
:1019B000047B704780B58AB000AFF86087ED000BFC
:1019C000FB687B627B6A002B2CD07B6A5B7C042BE0
:1019D00028D102233B7400237B747B6AD3E906235E
:1019E00010461946FFF7D4FA03467B61D7E9000198
:1019F000FFF7CEFA0346BB610023BB837B6A9B687B
:101A00000A4A52F823303B620021386AFFF7FEFE93
:101A10007B6A98687B6ADB68DAB207F110031946C3
:101A200007F06AFE00BF2837BD4680BD08FD0000F4
:101A300080B485B000AF78607B68FB60FB68002BEA
:101A400006D0FB685B7C042B02D1FB6800225A7431
:101A500000BF1437BD465DF8047B704780B483B087
:101A600000AF786000BF0C37BD465DF8047B70475F
:101A700080B586B000AF786026497A6813465B006F
:101A800013449B000B4409331B78002B27D107F12B
:101A90000803184607F0A2F90323FB721D497A6870
:101AA00013465B0013449B000B441B6807F10802BC
:101AB0001146184607F0A4F916497A6813465B00E8
:101AC00013449B000B44093303221A707A681346AF
:101AD0005B0013449B000F4A13447B6115E00D49E2
:101AE0007A6813465B0013449B000B4409331B7850
:101AF000032B08D17A6813465B0013449B00054A08
:101B000013447B6101E000237B617B691846183731
:101B1000BD4680BD3804002080B485B000AFF860B9
:101B20000B467A60FB7200BF1437BD465DF8047B3C
:101B3000704700000000000080B58AB000AFF86078
:101B4000B9601346FB71FB68FB61FB69002B3AD05F
:101B5000FB691B7A3B750023BB7500237B75FB6912
:101B60001B680121184607F093F9FB691868FB69A7
:101B70005B6807F11402194607F0AAF9FB691A68B5
:101B8000FB695B681946104607F0BEF9FB691A68E5
:101B9000FB695B681946104607F0D4F903467B835E
:101BA0007B8B07EE903AF8EE677A17EE900AFEF715
:101BB000BFFE0DA3D3E90023FEF712FF02460B463A
:101BC000C7E9082305E04FF000024FF00003C7E922
:101BD0000823B968D7E90823C1E9002300BF2837E3
:101BE000BD4680BDAFF30080100010001000F03E35
:101BF00080B483B000AF786000BF0C37BD465DF89D
:101C0000047B704780B483B000AF786000BF0C37AE
:101C1000BD465DF8047B704780B483B000AF786048
:101C200000BF0C37BD465DF8047B704780B584B0BB
:101C300000AFF860B9607A60BB680F2B06D90A4B19
:101C40000A4A40F2E2210A480AF034FAFA68BB680C
:101C50005B01134403F5805310337A681A6000BFA8
:101C60001037BD4680BD00BF0CF1000008F3000036
:101C700038F1000080B584B000AFF860B960134659
:101C8000FB71BB680F2B06D90D4B0E4A4FF46071E8
:101C90000D480AF00FFABB685B0103F58053183357
:101CA000FA681344043303F1424303F580135B01E4
:101CB0000433FA7992B21A8000BF1037BD4680BD56
:101CC0000CF1000024F3000038F1000090B587B05B
:101CD00000AFF8607A603B600B46FB7200237B61CB
:101CE000FB681B68032B00F0E481032B05D8012B54
:101CF00000F09880022B00F04781954B00221A607B
:101D0000934B1B68934A52F82330002B41D1904BE0
:101D10001B68914ADB00134400229A718C4B1B68AC
:101D20008D4ADB00134400221A71894B1B688A4AD2
:101D3000DB00134400225A71854B1B68864A4FF41E
:101D4000E13142F83310824B1B68184604F0F8FC6E
:101D50007F4B1B689B01814A13448149184607F059
:101D6000EBFA7B4B18687A4B1A6813461B019B1AD7
:101D70009B007C4A9918764B1B68DB00764A13441B
:101D80001A4608F0AFFB724B1B68724A012142F8F9
:101D900023107B68B3F1FF3F20D06D4B1A68724966
:101DA00013469B0013449B000B4414221A60684B9B
:101DB0001A686D4913469B0013449B000B4408337B
:101DC0006A4A1A60624B1A68674913469B001344BB
:101DD0009B000B440C33664A1A6015E05C4B1A6892
:101DE000614913469B0013449B000B4404331222A9
:101DF0001A60574B1A685C4913469B0013449B00BA
:101E00000B4410335B4A1A60514B1B68504A1268EE
:101E1000594941F823204E4B1B689B00564A1344F6
:101E20007B61F5E14A4B01221A60494B1B68494A24
:101E300052F82330002B41D1454B1B68464ADB004A
:101E4000134400229A71424B1B68434ADB0013443F
:101E500000221A713E4B1B683F4ADB0013440022EC
:101E60005A713B4B1B683C4A4FF4E13142F8331046
:101E7000374B1B68184604F063FC354B1B689B010D
:101E8000364A13443649184607F056FA304B18685C
:101E90002F4B1A6813461B019B1A9B00314A991855
:101EA0002B4B1B68DB002C4A13441A4608F01AFB24
:101EB000274B1B68274A012142F823107B68B3F1A6
:101EC000FF3F20D0224B1A68274913469B0013443A
:101ED0009B000B4400221A601D4B1A6822491346CE
:101EE0009B0013449B000B440833244A1A60184B90
:101EF0001A681D4913469B0013449B000B440C3386
:101F00001F4A1A6015E0124B1A68174913469B00C6
:101F100013449B000B44043300221A600C4B1A68D4
:101F2000114913469B0013449B000B441033154A80
:101F30001A60074B1B68064A12680F4941F82320B4
:101F4000034B1B689B000C4A13447B6160E100BF9C
:101F5000401200204412002060110020780E002062
:101F600078060020F80F0020981100203C0E002079
:101F7000500E0020640E002028120020640E002065
:101F8000640E0020780E0020824B02221A60814BE2
:101F90001B68814A52F82330002B41D17D4B1B68CE
:101FA0007E4ADB00134400229A717A4B1B687B4AFD
:101FB000DB00134400221A71764B1B68774ADB0062
:101FC000134400225A71734B1B68744A4FF4E13179
:101FD00042F833106F4B1B68184604F0B1FB6D4B91
:101FE0001B689B016E4A13446E49184607F0A4F91A
:101FF000684B1868674B1A6813461B019B1A9B00B5
:10200000694A9918634B1B68DB00644A13441A46FB
:1020100008F068FA5F4B1B685F4A012142F8231001
:102020007B68B3F1FF3F20D05A4B1A685F491346D3
:102030009B0013449B000B4400221A60554B1A6806
:102040005A4913469B0013449B000B440833584ADB
:102050001A60504B1A68554913469B0013449B0065
:102060000B440C33534A1A6015E04A4B1A684F4927
:1020700013469B0013449B000B44043300221A6058
:10208000444B1A68494913469B0013449B000B4478
:102090001033494A1A603F4B1B683E4A1268474951
:1020A00041F823203B4B1B689B00444A13447B614F
:1020B000AEE0384B03221A60364B1B68364A52F8A2
:1020C0002330002B41D1334B1B68344ADB001344CF
:1020D00000229A712F4B1B68304ADB001344002208
:1020E0001A712C4B1B682D4ADB00134400225A71D5
:1020F000284B1B68294A4FF4E13142F83310254B35
:102100001B68184604F01CFB224B1B689B01244AE9
:1021100013442449184607F00FF91E4B18681D4B4D
:102120001A6813461B019B1A9B001F4A9918194BEA
:102130001B68DB00194A13441A4608F0D3F9154B03
:102140001B68154A012142F823107B68B3F1FF3F59
:102150003AD0104B1A68154913469B0013449B0054
:102160000B4400221A600B4B1A68104913469B005F
:1021700013449B000B440833114A1A60054B1A683C
:102180000A4913469B0013449B000B440C330D4A31
:102190001A602FE04012002044120020601100203D
:1021A000780E002078060020F80F002098110020FB
:1021B000640E0020640E0020780E002028120020FB
:1021C000640E0020640E00202A4B1A682A49134628
:1021D0009B0013449B000B44043300221A60254BE0
:1021E0001A68254913469B0013449B000B44103387
:1021F000224A1A601F4B1B681E4A1268204941F888
:1022000023201C4B1B689B001D4A13447B6100BFAD
:102210007B68B3F1FF3F27D0164B1A6813461B01AA
:102220009B1A9B002833174A13440433114A12683F
:102230001549184607F0C2F80E4B18680D4B1A687E
:102240000D4913469B0013449B000B440833196847
:10225000084B1A68084C13469B0013449B00234408
:102260001B681A4600F0CEF87B6918461C37BD463D
:1022700090BD00BF4012002098110020780E002071
:1022800028120020F80F0020B124000080B483B091
:1022900000AF78603960002318460C37BD465DF802
:1022A000047B704780B483B000AF78600846114665
:1022B0001A460346FB700B46BB7013467B70002327
:1022C00018460C37BD465DF8047B704780B586B074
:1022D00000AFF860B9607A60FB683B613B69002B36
:1022E00033D03B691B681F4AD35C012B2DD13B695E
:1022F0001B681D4A52F82330012B0FD13B691A6825
:102300001A4913469B0013449B000B4408331B6877
:102310007A681946B868FEF7EBFF0EE03B691A6869
:10232000124913469B0013449B000B440C331B685B
:102330007A681946B868FEF7DBFF3B691B68094AF3
:102340000021D1540023FB7506E07A680021B868AB
:102350000BF0C8FE2023FB75FB7D18461837BD46E1
:1023600080BD00BF901100201012002098110020A5
:1023700080B586B000AFF860B9607A60FB683B61F9
:102380003B69002B2AD03B691B680021184608F0E6
:10239000F7F90346082B21D03B691A681349134605
:1023A0009B0013449B000B4410331B687A68B96888
:1023B0001846FEF79DFF3B6918683B691A680B4990
:1023C00013469B0013449B000B4410331B687A6830
:1023D000194608F0B1F90346FB7501E02023FB75AF
:1023E000FB7D18461837BD4680BD00BF9811002000
:1023F00080B483B000AF786000BF0C37BD465DF895
:10240000047B704780B588B000AFF860B9607A602F
:10241000FB68052B06D9214B214A40F2891121483E
:1024200009F048FE204AFB6852F82330FB61FB6943
:1024300093F82C301B09DBB21A461C4B53F82230A0
:10244000BB61FB6993F82C3003F00F037B61FB69E0
:102450005B78DBB2002B01D009231AE0FB69012273
:102460005A70BB681A467969B869FFF7DFFB7A686A
:102470007969B86906F0A2FE01227969B869FFF7A7
:10248000F9FB7B69DBB201221946B86906F087FDCA
:10249000002318462037BD4680BD00BF70F1000004
:1024A000E4F2000090F1000044580020C8FA000057
:1024B00080B582B000AF78600B46FB707B68184631
:1024C00000F004F800BF0837BD4680BD80B586B077
:1024D00000AF78607B68052B06D93C4B3C4A40F244
:1024E000AD113C4809F0E6FD3B4A7B6852F82330C9
:1024F0007B617B6993F82C301B09DBB21A46374BA2
:1025000053F822303B617B6993F82C3003F00F03C2
:10251000FB600022F9683869FFF7ACFBFB68DBB2AF
:1025200000221946386906F03AFD7B69DB78DBB298
:10253000002B04D07B691033184606F07FF97B69C5
:1025400000225A70264A7B68134401221A70254AD9
:102550007B6852F82330002B1AD123497A6813463E
:102560009B0013449B000B440C3319681E487A6887
:1025700013469B0013449B0003441B681A4678686B
:10258000FFF740FF174A7B68012142F8231019E04A
:1025900015497A6813469B0013449B000B4408338B
:1025A000196811487A6813469B0013449B00034442
:1025B0001B681A467868FFF725FF0A4A7B680021E6
:1025C00042F8231000BF1837BD4680BD70F10000EF
:1025D0003CF3000090F1000044580020C8FA0000CD
:1025E00090110020101200209811002080B582B0B8
:1025F00000AF786006F020FB034618460837BD465A
:1026000080BD80B483B000AF78607B68023303F193
:10261000424303F580135B011C3301221A7000BF93
:102620000C37BD465DF8047B704780B483B000AFC3
:1026300078607B68023303F1424303F580135B014A
:102640000C3300221A7000BF0C37BD465DF8047BC6
:10265000704780B483B000AF78607B68023303F1C9
:10266000424303F580135B010C3301221A7000BF53
:102670000C37BD465DF8047B704780B483B000AF73
:1026800078600B46FB707B68023303F1424303F52D
:1026900080135B0110331A46FB78137000BF0C37B0
:1026A000BD465DF8047B704780B483B000AF7860AE
:1026B0007B681B79DBB218460C37BD465DF8047B9E
:1026C000704780B483B000AF78600B46FB707B68C6
:1026D000FA781A7100BF0C37BD465DF8047B70476D
:1026E00080B483B000AF78600B46FB707B68DB780A
:1026F000DBB21A46FB7842FA03F303F00103002B26
:1027000014BF01230023DBB218460C37BD465DF829
:10271000047B704780B483B000AF78607B6802337D
:1027200003F1424303F580135B0114331B78DBB2E2
:10273000002B14BF01230023DBB218460C37BD4623
:102740005DF8047B704780B483B000AF78600B46BF
:10275000FB707B68023303F1424303F580135B0196
:102760001833FA781A7000BF0C37BD465DF8047B49
:10277000704780B483B000AF78607B680222DA7063
:1027800000BF0C37BD465DF8047B704780B584B050
:1027900000AFF860B9601346FB71BB681F2B05D909
:1027A0000B4B0C4AD9210C4809F084FCBB689B00F8
:1027B000FA68134403F1424303F580135B011433B9
:1027C0001A46FB79136000BF1037BD4680BD00BFBD
:1027D000F8F1000080F3000004F2000080B584B03E
:1027E00000AFF860B9601346FB71BB681F2B05D9B9
:1027F0000D4B0E4AFF210E4809F05CFCFB68BA68DD
:1028000053F8223023F0807323F4E063FA79120244
:1028100002F4E06243EA0201FB68BA6843F822105E
:1028200000BF1037BD4680BDF8F100006CF300001A
:1028300004F2000080B584B000AF78607B681B684C
:102840000F4A52F82330FB607B681B68184600F083
:10285000EFF97B681B68184606F062FAF86807F023
:10286000F1F8F868FFF7CDFE0121F868FFF76BFF7C
:102870000449786800F0FCF800BF1037BD4680BD01
:1028800060F30000A086010080B584B000AF7860DE
:102890007B681B68054A52F82330FB60F86807F034
:1028A00015F9002318461037BD4680BD60F30000BF
:1028B00080B584B000AF78600023BB607B681B6884
:1028C0000E4A52F82330FB60F868FFF723FF0346F7
:1028D000002B02D0F86807F009F90023BB6004E080
:1028E00000BF00BFBB680133BB60BB68C72BF7D913
:1028F000002318461037BD4680BD00BF60F30000BE
:1029000080B586B000AF78600B46FB70104B3B6122
:102910007B681B680F4A52F82330FB6000237B6101
:102920000CE0FB781946F868FFF7DAFE0346002B47
:1029300001D0002307E07B6901337B617A693B6941
:102940009A42EED3012318461837BD4680BD00BF1A
:10295000A086010060F3000080B584B000AF78600D
:102960007B681B68104A52F82330FB6001217868AD
:10297000FFF7C6FF0346002B01D0022310E0F868E2
:10298000FFF7F7FE07217868FFF7BAFF0346002B31
:1029900001D0022304E00021F868FFF7A1FE0346FE
:1029A00018461037BD4680BD60F3000080B584B086
:1029B00000AF78607B681B680A4A52F82330FB60DE
:1029C00001217868FFF79CFF0346002B01D001230B
:1029D00003E0F868FFF7CDFE002318461037BD4628
:1029E00080BD00BF60F3000080B584B000AF7860A8
:1029F00039607B681B68094A52F82330FB603B68EA
:102A0000DBB21946F868FFF75CFE7868FFF7A4FFB1
:102A1000034618461037BD4680BD00BF60F3000076
:102A200080B586B000AFF860B9607A60FB681B685B
:102A30000E4A52F823307B617B68002B03D0786903
:102A4000FFF707FE02E07869FFF7EFFD7869FFF70F
:102A50002BFE03461A46BB681A70F868FFF7A6FFFC
:102A6000034618461837BD4680BD00BF60F300001E
:102A700080B584B000AF786039607B681B680E4A0F
:102A800052F82330FB607B681B681846FFF7AEFDE9
:102A90000346BB603B68094A82FB03129211DB17B5
:102AA000D31A1A460023B968F86806F0D9FF00BFA8
:102AB0001037BD4680BD00BF60F30000D34D6210EB
:102AC00090B589B000AFF860B9607A603B60F86893
:102AD000FFF7DAFE0346002B05D0F868FFF7E8FEA3
:102AE0006FF0010355E0BB6843F001031946F86835
:102AF000FFF77AFF0346002B05D0F868FFF7D8FEF2
:102B00004FF0FF3345E0FB681B68244A52F823303E
:102B1000BB610021B869FFF7B0FD0023FB6124E031
:102B2000FB69002B02D107F1120303E0FB69013BB3
:102B30007A6813447B613B68013BFA699A420CBF97
:102B400001230023DBB2FB74FB7C1A467969F86829
:102B5000FFF766FF0346002B04D0F868FFF7A8FED6
:102B6000FB6916E0FB690133FB61FA693B689A4235
:102B7000D6DB3B6B002B02D0F868FFF799FEFB69B0
:102B8000013B7A68D418B869FFF78EFD03462370BD
:102B90003B6818462437BD4690BD00BF60F3000077
:102BA00080B586B000AFF860B9607A603B60F868C5
:102BB000FFF76AFE0346002B05D0F868FFF778FEA2
:102BC0006FF0010330E0BB6803F0FE031946F868BC
:102BD000FFF70AFF0346002B05D0F868FFF768FEF1
:102BE0004FF0FF3320E000237B6112E07B697A68BD
:102BF00013441B781946F868FFF7F6FE0346002BCE
:102C000004D0F868FFF754FE7B690DE07B6901335F
:102C10007B617A693B689A42E8DB3B6A002B02D011
:102C2000F868FFF745FE3B6818461837BD4680BD7B
:102C300080B582B000AF78607B68002B03D07B68E2
:102C4000012B15D029E0052218211648FFF7C6FDF3
:102C5000012218211348FFF799FD05221921114877
:102C6000FFF7BCFD012219210E48FFF78FFD14E08C
:102C700002220A210C48FFF7B1FD01220A210A486D
:102C8000FFF784FD02220B210748FFF7A7FD012271
:102C90000B210548FFF77AFD00BF00BF0837BD468E
:102CA00080BD00BF00D0044000B0044080B584B0B7
:102CB00000AF78600B46FB707B68012B11D80C4984
:102CC0007B687A6841F823207B689B00084A13449C
:102CD0001846FFF7AFFD7B689B00054A1344FB6075
:102CE00001E00023FB60FB6818461037BD4680BD3D
:102CF0005C12002080B584B000AF786039607B68DA
:102D0000002B07D03B6819467868FFF7B1FE002317
:102D1000FB7301E00823FB73FB7B18461037BD46AD
:102D200080BD80B588B002AFF8607A603B600B462A
:102D30007B8100237B6197F82030002B0CBF01239F
:102D40000023DBB23B61FB68002B19D07B89590063
:102D50003A683B69009313467A68F868FFF7B0FE5B
:102D600003467B617B6913F1020F01D1012308E067
:102D70007B69B3F1FF3F01D1042302E0002300E0AF
:102D8000082318461837BD4680BD80B588B002AF0D
:102D9000F8607A603B600B467B8100237B6197F88B
:102DA0002030002B0CBF01230023DBB23B61FB680A
:102DB000002B19D07B8959003A683B690093134670
:102DC0007A68F868FFF7ECFE03467B617B6913F1D4
:102DD000020F01D1012308E07B69B3F1FF3F01D16C
:102DE000042302E0002300E0082318461837BD46FC
:102DF00080BD80B483B000AF786000BF0C37BD46A3
:102E00005DF8047B7047000080B586B000AF786144
:102E1000184B1B681B68002B0CBF01230023DBB27F
:102E20001A46154B1A7011E03B461449184604F037
:102E300058F800F061FF0F4B1B681B68002B14BF94
:102E400001230023DBB21A460D4B1A700A4B1B7884
:102E5000DBB2002BE8D1084B00221A70786900F031
:102E600011F8002003F096FF002318461837BD46DE
:102E700080BD00BF9CF300007A0600207012002085
:102E80006412002080B582B000AF7860074B012249
:102E90001A60074B00221A7002F052FD054804F038
:102EA0000DF8002318460837BD4680BD8C1200205F
:102EB0007A0600206812002080B586B000AF7861E5
:102EC000396103F00DFA03F0D5FB0A4B1B680022B1
:102ED0001A6002F0F5FA00209FED070A03F0ACFE3D
:102EE0003B460649184603F0FCFF002318461837F6
:102EF000BD4680BD9CF300006F12833A681200202B
:102F000080B582B000AF786039607B68D3E9002378
:102F1000394901F51A6141E90223374B03F51C6376
:102F200019464FF00002354BC1E90023324B03F53F
:102F30001C6319464FF000024FF0000341E90223E1
:102F40002D4B03F5196319464FF000024FF00003B3
:102F5000C1E90023284B03F51B6319464FF000021B
:102F60004FF0000341E90223234B03F51B6319468D
:102F70004FF000024FF00003C1E900231E4B03F5A0
:102F80001D6319464FF000024FF0000341E9022390
:102F9000194B03F51D6319464FF00002174BC1E9A9
:102FA0000023154B03F5186319464FF00002134B2D
:102FB000C1E90023124BD3E924230F4901F519611C
:102FC00041E902233B68D3E9002309A1D1E90001CB
:102FD000FDF730FE02460B460A4901F53A61C1E9A8
:102FE000002300BF0837BD4680BD00BFAFF300809F
:102FF00000000000004CDD40901200200000F03F77
:1030000080060020001D002080B582B000AF7860EF
:1030100039603B4B03F51C6319464FF00002394BF6
:10302000C1E90023364B03F51C6319464FF000023B
:103030004FF0000341E90223314B03F519631946B0
:103040004FF000024FF00003C1E900232C4B03F5C1
:103050001B6319464FF000024FF0000341E90223C1
:10306000274B03F51B6319464FF000024FF0000396
:10307000C1E90023224B03F51D6319464FF00002FE
:10308000204B41E902231E4B03F51D6319464FF007
:1030900000024FF00003C1E90023194B03F5186348
:1030A00019464FF00002174BC1E900237B68D3E9B2
:1030B0000023134901F51A6141E902233B68D3E972
:1030C00000234FF000000F49FDF7B4FD02460B4608
:1030D0001046194608A3D3E90023FDF781FC0246F8
:1030E0000B46094901F53A61C1E9002300BF0837E1
:1030F000BD4680BDAFF3008000000000004CDD4005
:10310000901200200000F03F001D00200000000091
:1031100080B582B000AF786039607B68D3E9002366
:10312000394901F51A6141E90223374B03F51C6364
:1031300019464FF00002354BC1E90023324B03F52D
:103140001C6319464FF000024FF0000341E90223CF
:103150002D4B03F5196319464FF000024FF00003A1
:10316000C1E90023284B03F51B6319464FF0000209
:103170004FF0000341E90223234B03F51B6319467B
:103180004FF000024FF00003C1E900231E4B03F58E
:103190001D6319464FF000021C4B41E902231A4BF4
:1031A00003F51D6319464FF000024FF00003C1E91B
:1031B0000023154B03F5186319464FF00002134B1B
:1031C000C1E90023124BD3E918230F4901F51A6115
:1031D000C1E900233B68D3E9002309A1D1E900013B
:1031E000FDF728FD02460B460A4901F53A61C1E99F
:1031F000002300BF0837BD4680BD00BFAFF300808D
:1032000000000000004CDD40901200200000F03F64
:1032100080060020001D002080B582B000AF7860DD
:1032200039603B4B03F51C6319464FF00002394BE4
:10323000C1E90023364B03F51C6319464FF0000229
:103240004FF0000341E90223314B03F5196319469E
:103250004FF000024FF00003C1E900232C4B03F5AF
:103260001B6319464FF000024FF0000341E90223AF
:10327000274B03F51B6319464FF000024FF0000384
:10328000C1E90023224B03F51D6319464FF00002EC
:103290004FF0000341E902231D4B03F51D6319465E
:1032A0004FF000021B4BC1E90023194B03F51863D3
:1032B00019464FF00002174BC1E900237B68D3E9A0
:1032C0000023134901F51A6141E902233B68D3E960
:1032D00000234FF000000F49FDF7ACFC02460B46FF
:1032E0001046194608A3D3E90023FDF779FB0246EF
:1032F0000B46094901F53A61C1E9002300BF0837CF
:10330000BD4680BDAFF3008000000000004CDD40F2
:10331000901200200000F03F001D002090B585B005
:1033200000AFF860B9607A603B60954B93F8583A0B
:10333000012B04D0924B93F8583A052B14D1914BA2
:10334000002283F8B12B8F4B032283F8AD2B8D4BDA
:103350000022C3F8A82B8B4B022283F8B02B396ACA
:103360003868FFF759FFCBE1854B93F8583A022BA9
:1033700004D0834B93F8583A062B10D1814B00228E
:1033800083F8B12B7F4B012283F8AD2B7D4B0222BA
:1033900083F8AE2B396AF868FFF7BAFEB0E1784BD4
:1033A00093F8583A002B04D0754B93F8583A042BF5
:1033B00014D1744B002283F8B12B724B022283F894
:1033C000AD2B704B0022C3F8A82B6E4B022283F862
:1033D000AF2B396AF868FFF717FE91E1694B93F854
:1033E000B13B032B00F0D280032B00F36681012B4D
:1033F00002D0022B6DD060E1614B03F518631946D2
:103400004FF000024FF00003C1E900235C4B03F5CD
:103410001C6319464FF000025B4BC1E90023584B77
:1034200003F51B6319464FF000024FF00003C1E99A
:103430000023534B03F51D6319464FF000024FF074
:10344000000341E902234E4B03F5196319464FF07F
:1034500000024FF00003C1E90023494B03F51B6351
:1034600019464FF000024FF0000341E90223444B9C
:1034700003F51D6319464FF000024FF00003C1E948
:1034800000233F4B03F51C6319464FF000023E4BEF
:1034900041E902233B4BD3F8A84BBB6893ED007B7B
:1034A000B0EE470AF0EE670A07F0B2FD53EC102BBE
:1034B00010461946FDF76CFD03469C42C0F01B8187
:1034C000304B022283F8B12B396A3868FFF718FDB8
:1034D00011E12B4B03F51C6319464FF000022A4BF8
:1034E000C1E90023264B03F51C6319464FF0000287
:1034F0004FF0000341E90223214B03F519631946FC
:103500004FF000024FF00003C1E900231C4B03F50C
:103510001B6319464FF000024FF0000341E90223FC
:10352000174B03F51B6319464FF000024FF00003E1
:10353000C1E90023124B03F51D6319464FF0000249
:103540004FF0000341E902230D4B03F51D631946BB
:103550004FF000020C4BC1E90023094B03F518633F
:1035600019464FF00002084BC1E90023054B002229
:10357000C3F8A82B034B042283F8B12BC0E000BF93
:1035800090120020001D00200000F03F5E4BD3F899
:10359000A84B5D4B03F53A63D3E90001BB68D3E95F
:1035A0000023FDF765F802460B46104619467B6876
:1035B000D3E90023FDF75CF802460B4643EC172BDA
:1035C000B0EE470AF0EE670A07F022FD53EC102B2D
:1035D00010461946FDF7DCFC03469C4260D34A4B7B
:1035E0000022C3F8A82B484B012283F8B12B474B8C
:1035F00003F51A6319464FF000024FF0000341E94A
:103600000223424B03F5186319464FF000024FF0B6
:103610000003C1E900233D4B03F51C6319464FF03D
:1036200000023B4BC1E90023384B03F51B631946ED
:103630004FF000024FF00003C1E90023334B03F5C4
:103640001D6319464FF000024FF0000341E90223C9
:103650002E4B03F5196319464FF000024FF000039B
:10366000C1E90023294B03F51B6319464FF0000203
:103670004FF0000341E90223244B03F51D63194673
:103680004FF000024FF00003C1E900231F4B03F588
:103690001C6319464FF000021D4B41E902232CE048
:1036A0007B6A1B78002B28D0174B0022C3F8A82B6D
:1036B000154B042283F8B12B1FE0134BD3F8A84B12
:1036C0007B6893ED007BB0EE470AF0EE670A07F0E7
:1036D0009FFC53EC102B10461946FDF759FC03468E
:1036E0009C420CD3084B0022C3F8A82B064B0322A4
:1036F00083F8B12B03E000BF02E000BF00E000BF91
:1037000000BF1437BD4690BD001D00209012002060
:103710000000F03F90B585B000AFF860B9607A6006
:103720003B60954B93F8583A032B04D0924B93F897
:10373000583A072B10D1914B002283F8AE2B8F4BB8
:10374000042283F8AD2B8D4B022283F8B12B396A0A
:103750003868FFF7D5FBCFE1874B93F8583A002B39
:1037600004D0854B93F8583A042B14D1834B002294
:1037700083F8AE2B814B022283F8AD2B7F4B0022C6
:10378000C3F8A82B7D4B022283F8AF2B396AB868A7
:10379000FFF73AFCB0E1784B93F8583A012B04D08C
:1037A000754B93F8583A052B14D1744B002283F8CB
:1037B000AE2B724B032283F8AD2B704B0022C3F863
:1037C000A82B6E4B022283F8B02B396A3868FFF7BA
:1037D00023FD91E1694B93F8AE3B032B00F0D280BF
:1037E000032B00F36681012B02D0022B6DD060E128
:1037F000614B03F5186319464FF000024FF00003C8
:10380000C1E900235C4B03F51C6319464FF000022D
:103810005B4BC1E90023584B03F51B6319464FF07E
:103820000002574BC1E90023534B03F51D631946B2
:103830004FF000024FF0000341E902234E4B03F525
:10384000196319464FF000024FF00003C1E900234D
:10385000494B03F51B6319464FF000024FF000037C
:1038600041E90223444B03F51D6319464FF0000262
:103870004FF00003C1E900233F4B03F51C631946D9
:103880004FF000024FF0000341E902233B4BD3F815
:10389000A84BFB6893ED007BB0EE470AF0EE670A99
:1038A00007F0B6FB53EC102B10461946FDF770FBE2
:1038B00003469C42C0F01B81304B022283F8AE2BA2
:1038C000396AB868FFF724FC11E12B4B03F51C6340
:1038D00019464FF000022A4BC1E90023264B03F59D
:1038E0001C6319464FF000024FF0000341E9022328
:1038F000214B03F5196319464FF000024FF0000306
:10390000C1E900231C4B03F51B6319464FF000026D
:103910004FF0000341E90223174B03F51B631946DF
:103920004FF000024FF00003C1E90023124B03F5F2
:103930001D6319464FF00002114B41E902230E4B63
:1039400003F51D6319464FF000024FF00003C1E973
:103950000023094B03F5186319464FF00002084B8A
:10396000C1E90023054B0022C3F8A82B034B042216
:1039700083F8AE2BC0E000BF90120020001D002095
:103980000000F03F5E4BD3F8A84B5D4B03F53A6364
:10399000D3E90001FB68D3E90023FCF769FE024686
:1039A0000B46104619467B68D3E90023FCF760FEFE
:1039B00002460B4643EC172BB0EE470AF0EE670ABF
:1039C00007F026FB53EC102B10461946FDF7E0FAE2
:1039D00003469C4260D34A4B0022C3F8A82B484BB5
:1039E000012283F8AE2B474B03F51A6319464FF0BB
:1039F00000024FF0000341E90223424B03F5186334
:103A000019464FF000024FF00003C1E900233D4B7F
:103A100003F51C6319464FF000023B4BC1E900233C
:103A2000384B03F51B6319464FF00002364BC1E9D2
:103A30000023344B03F51D6319464FF000024FF08D
:103A4000000341E902232F4B03F5196319464FF098
:103A500000024FF00003C1E900232A4B03F51B636A
:103A600019464FF000024FF0000341E90223254BB5
:103A700003F51D6319464FF000024FF00003C1E942
:103A80000023204B03F51C6319464FF000024FF052
:103A9000000341E902232CE07B6A1B78002B28D02D
:103AA000174B0022C3F8A82B154B042283F8AE2B2A
:103AB0001FE0134BD3F8A84B7B6893ED007BB0EE6F
:103AC000470AF0EE670A07F0A3FA53EC102B1046F2
:103AD0001946FDF75DFA03469C420CD3084B0022C1
:103AE000C3F8A82B064B032283F8AE2B03E000BFDC
:103AF00002E000BF00E000BF00BF1437BD4690BD2C
:103B0000001D0020901200200000F03F80B584B01E
:103B100000AF78607B6801225A600023FB6007F1E8
:103B20000C004FF0FF330A220021FEF7CFF80246C7
:103B30007B681A617B681B694FF4E1311846FEF718
:103B4000A5FB7B681869012300220821FEF7AAFB68
:103B50007B6801221A7200BF1037BD4680BD00008D
:103B600080B586B002AF78607B6801225A60002180
:103B70000020FFF79BF802467B689A627B68494AFF
:103B80005A627B689A6A7B685B6A19461046FFF73F
:103B9000B1F82B233B7340237B737B68986A07F152
:103BA0000C02002301930023009302231D21FFF741
:103BB000ECF84FF4FA7004F081FE2A23BB727B68A4
:103BC000986A07F10A02002301930123009301235D
:103BD0001D21FFF7DAF80346BB72BB7A002B14D124
:103BE0007B68986A07F10A0201230193002300937E
:103BF00001231D21FFF795F807F10A0107F10B03D7
:103C000001221846FDF774FB01E00023FB722A2312
:103C10003B73FB7A23F00103DBB27B737B68986A0A
:103C200007F10C02002301930023009302231D21BE
:103C3000FFF7ABF80E233B7301237B737B68986A15
:103C400007F10C02002301930023009302231D219E
:103C5000FFF79BF85B233B7300237B737B68986AB9
:103C600007F10C02002301930023009302231D217E
:103C7000FFF78BF82A233B7301237B737B68986AD9
:103C800007F10C02002301930023009302231D215E
:103C9000FFF77BF87B6801221A7200BF1037BD4620
:103CA00080BD00BFA086010080B483B000AF786003
:103CB0007B6800221A727B6801225A607B680122AD
:103CC0001A637B6801225A637B6800229A637B68CF
:103CD00000229A637B6803F138027B68DA627B68B2
:103CE00001221A727B6800225A7200BF0C37BD464F
:103CF0005DF8047B704700002DE9B0432DED028B89
:103D00008AB002AFB64B03F5266353E90201B54B07
:103D1000D3E90223FDF7CCF80346002B07D1B14BC2
:103D2000D3E90223AE4901F5266141E90223AC4BF8
:103D3000D3F8503A1846FDF7A7FC0346BB71A84BD1
:103D400003F5246353E90201A64BD3E90423FDF7ED
:103D5000AFF80346002B07D1A24BD3E90423A049B7
:103D600001F5246141E902239D4BD3F8303A18460E
:103D7000FDF78AFC03467B71994B03F5286353E9F1
:103D80000201984BD3E90623FDF792F80346002B76
:103D900007D1944BD3E90623914901F5286141E904
:103DA00002238F4BD3F8703A14228F491846FEF73E
:103DB0008DFA0346FB7114228B498C48FDF798FA63
:103DC000874B03F5226353E90201864BD3E90023B5
:103DD000FDF76EF80346002B07D1824BD3E9002391
:103DE0007F4901F5226141E902237D4BD3F8103A66
:103DF0001846FDF7FDFE7A4BD3F8103A07227C49AE
:103E00001846FDF799FE774B93ED308A794B03F511
:103E1000206353E9022310461946FDF7D9F807EE4F
:103E2000900A68EE277A734B03F52463C3ED007A9A
:103E30006B4B03F5206353E902016A4BD3E9082376
:103E4000FDF736F80346002B07D1664BD3E908236C
:103E5000634901F5206141E90223614BD3F8F03950
:103E60001846FDF7C5FE5E4BD3F8F03907226049CE
:103E70001846FDF761FE5B4B93ED318A5D4B03F510
:103E8000206353E9022310461946FDF7A1F807EE17
:103E9000900A68EE277A574B03F64423C3ED007A65
:103EA0004F4B93F8C83B1E2B07D84D4B93F8C83B9C
:103EB0000133DAB24A4B83F8C82B494B93F8C63B1F
:103EC000002B54D1464B012283F8C62B444B0122D0
:103ED00083F8C72B474B012283F8582A454B3C22D5
:103EE00083F8592A434B782283F85A2A414B782287
:103EF00083F85B2A3F4B962283F85C2A3D4B2322B2
:103F000083F85D2A3B4B232283F85E2A394B282213
:103F100083F85F2A374B282283F8602A354B0F221B
:103F200083F8612A334B322283F8622A314B1922FB
:103F300083F8632A2F4B202283F8642A2D4B2022FA
:103F400083F8652A2B4B042283F8662A294B1E220C
:103F500083F8672A274B082283F8682A254B052215
:103F600083F8692A234B002283F86B2A7DE11C4BDE
:103F700093F8C73B013B072B00F25E8101A252F888
:103F800023F000BFA53F0000AF3F0000B93F000095
:103F9000CF3F0000F93F0000134000001D4000002B
:103FA0001F4100000E4B072283F8C72B5DE10C4B2D
:103FB000072283F8C72B58E1094B042283F8C72B4B
:103FC00001F036FF0B4B012283F86B2A4DE1094BC0
:103FD000002283F86B2A024B072283F8C72B44E1A7
:103FE000001D002080060020FC1B0020E81B002094
:103FF000881C002090120020994B93F8C83B132B8B
:1040000040F22881964B022283F8C72B01F010FF63
:1040100020E1934B072283F8C72B26E1FB79002B85
:1040200040F01A818F4B93F858298D4B83F8B32BAE
:104030008C4B93F859298A4B83F8B22B894B93F810
:104040005A29874B83F8BD2B864B93F85B29844B09
:1040500083F8B42B834B93F85C29814B83F8B62B00
:10406000804B93F85D297E4B83F8B52B7D4B93F8FD
:104070005E297B4B83F8B82B7A4B93F85F29784BFA
:1040800083F8B72B774B93F86029754B83F8C22BD5
:10409000744B93F86129724B83F8BA2B714B93F8E8
:1040A00062296F4B83F8C32B6E4B93F863296C4BDB
:1040B00083F8BB2B6B4B93F86429694B83F8C52BB2
:1040C000684B93F86529664B83F8B92B654B93F8D9
:1040D0006629634B83F8C42B624B93F86729604BC6
:1040E00083F8BE2B5F4B93F868295D4B83F8BC2B9C
:1040F0005C4B93F869295A4B83F8BF2B594B93F8C3
:104100006A29574B83F8C12B564B93F86B29544BB4
:1041100083F8C02B524B092283F8C72B9CE0504BED
:1041200093F8B23B552B07D0552B00F39780222BE9
:1041300073D0382B7AD091E0494B062283F8C72BF5
:10414000474B93F8BD2B474B83F8582A444B93F8C1
:10415000B42B444B83F8592A414B93F8B62B414B6F
:1041600083F85A2A3E4B93F8B52B3E4B83F85B2AD3
:104170003B4B93F8B82B3B4B83F85C2A384B93F8B6
:10418000B72B384B83F85D2A354B93F8C22B354B50
:1041900083F85E2A324B93F8BA2B324B83F85F2AAE
:1041A0002F4B93F8C32B2F4B83F8602A2C4B93F89B
:1041B000BB2B2C4B83F8612A294B93F8C52B294B39
:1041C00083F8622A264B93F8B92B264B83F8632A8F
:1041D000234B93F8C42B234B83F8642A204B93F88A
:1041E000BE2B204B83F8652A1D4B93F8BC2B1D4B2F
:1041F00083F8662A1A4B93F8BF2B1A4B83F8672A69
:10420000174B93F8C12B174B83F8682A144B93F87C
:10421000C02B144B83F8692A0DE0114B002283F860
:10422000C82B0F4B052283F8C72B04E00C4B03224D
:1042300083F8C72B00BF11E0094B93F8B33B162B53
:1042400012D1074B082283F8C72B064B012283F8B3
:104250006B2A09E000BF08E000BF06E000BF04E0F1
:10426000001D00209012002000BF8D4BD3E90E45A9
:104270008C4B93F85F3A1846FCF738FB02460B4626
:1042800020462946FCF7ACFB02460B46854901F562
:10429000206141E90223824BD3E91045814B93F819
:1042A0005D3A1846FCF722FB02460B46204629469B
:1042B000FCF796FB02460B4610461946784BD3E9AD
:1042C0001223FCF7B7FC02460B4610461946744B06
:1042D000D3E91423FCF784FB02460B46714901F530
:1042E0002061C1E900236E4BD3E916456D4B93F86D
:1042F000633A1846FCF7FAFA02460B46204629466E
:10430000FCF76EFB02460B46664901F5216141E967
:104310000223634BD3E91A45624B93F8603A18467F
:10432000FCF7E4FA02460B4620462946FCF758FB08
:1043300002460B465B4901F52161C1E90023584B58
:10434000D3E91C45574B93F85E3A1846FCF7CEFA72
:1043500002460B4620462946FCF742FB02460B4626
:10436000104619464E4BD3E91E23FCF763FC024668
:104370000B46104619464A4BD3E92023FCF730FB85
:1043800002460B46474901F52261C1E90023444B2F
:10439000D3E92245434B93F8643A1846FCF7A6FA52
:1043A00002460B4620462946FCF71AFB02460B46FE
:1043B0003C4901F5226141E902233B4B03F51C63B3
:1043C000D3E90001364BD3E90C23FCF771FD03461A
:1043D000002B07D1324BD3E90C23334901F51C6183
:1043E000C1E900230123FB712F4BD3F8D809FA1D33
:1043F000002301930123009301231D21FEF7C5FC37
:104400000346FB71FB79002B56D1274BD3F8D80913
:1044100007F11002012301930023009306231D21BD
:10442000FEF77FFC07F11003062219461F48FCF730
:104430005FFF07F1080302221C491846FCF758FFEA
:104440007B7A3B733B7A7B7307F10C03022219469C
:104450001648FCF74DFF07F10803022214491846DD
:10446000FCF746FF7B7A3B733B7A7B7307F10C03C7
:10447000022219460E48FCF73BFF07F1080302220F
:104480000C491846FCF734FF7B7A3B733B7A7B730D
:1044900007F10C03022219460648FCF729FF17E032
:1044A0008006002090120020001D0020C81C002063
:1044B000CA1C0020CC1C0020AB4B0022A3F8382AD9
:1044C000A94B0022A3F83A2AA74B0022A3F83C2AC2
:1044D000A54BB3F9383A9B101BB21846FCF716FAF5
:1044E00002460B46FCF7C6F802460B461046194634
:1044F0009BA3D3E90023FCF773FA02460B46104650
:1045000019464FF00002994BFCF794FB02460B460C
:10451000954901F5236141E90223934BB3F93A3AF6
:104520009B101BB21846FCF7F1F902460B46FCF74C
:10453000A1F802460B461046194689A3D3E9002389
:10454000FCF74EFA02460B46104619464FF00002A1
:10455000864BFCF76FFB02460B46834901F523614E
:10456000C1E90023804BB3F93C3A9B101BB21846BB
:10457000FCF7CCF902460B46FCF77CF802460B46EA
:104580001046194676A3D3E90023FCF729FA024620
:104590000B46104619464FF00002744BFCF74AFBDD
:1045A00002460B4610461946714BD3E92623FCF709
:1045B0005FF802460B466C4901F51F61C1E9002313
:1045C000694B03F5236353E90201674B03F523634A
:1045D00053E90223FCF704FA02460B4614461D4633
:1045E000614B03F52363D3E900015F4B03F52363BC
:1045F000D3E90023FCF7F4F902460B46204629468E
:10460000FCF738F802460B4614461D46564B03F598
:104610001F63D3E90001544B03F51F63D3E9002363
:10462000FCF7DEF902460B4620462946FCF722F845
:1046300002460B4643EC172BB0EE470AF0EE670A32
:1046400006F0C0FBB0EE407AF0EE607A464B03F520
:10465000236303ED027B474B5B7A002B02D0454B73
:1046600000225A72434BDB6ABB61424BDB6A1B6818
:10467000012B5ED03F4BDB6A00221A713D4BDB6A97
:1046800001221A60B9694FF000024FF00003C1E93E
:104690000223BB6903F5176319464FF00002364B3E
:1046A00041E90223BB6903F5176319464FF0000285
:1046B0004FF00003C1E90023BB6901221A71B969F7
:1046C0004FF000024FF00003C1E902230023FB6119
:1046D00018E0BA69FB690233DB00D1184FF0000221
:1046E0004FF00003C1E90023BA69FB690233DB0024
:1046F000D1184FF000024FF00003C1E90023FB691D
:104700000133FB61FB69B3F5957FE2DDBB6903F51E
:10471000176319464FF00002174B41E90223BB69AA
:1047200003F5176319464FF000024FF00003C1E98B
:104730000023BB6903F5176353E902230A4901F516
:104740002361C1E90023BB69D3E90223064901F5CE
:104750001F61C1E900230023FB611FE0AFF300806C
:1047600008AC1C5A643BCF3F9012002000408F40A1
:1047700080060020001D00200000F03FBA69FB69A0
:104780000233DB001344D3E90023A148F969C900CF
:104790000144C1E90023FB690133FB61FB69B3F507
:1047A000957FEBDDBB6903F51763D3E900239849D7
:1047B00001F51E61C1E90023954B03F51F631946FE
:1047C0004FF000024FF0000341E90223904B03F544
:1047D0001E6319464FF000024FF0000341E9022327
:1047E0008B4B03F51F63D3E90001894B03F523636A
:1047F00053E90223FBF73EFF02460B46844901F5CD
:104800001F61C1E90023824B03F51E63D3E9000158
:104810004FF000024FF00003FCF74AFB0346002B69
:104820001DD07B4B03F52363D3E9002310461946C3
:10483000FCF786FB0346013B754ADB001344D3E9D2
:104840000001734B03F51F63D3E90023FBF712FF4D
:1048500002460B466E4901F51F6141E902236C4B8C
:1048600003F52363D3E9002310461946FCF768FBE0
:104870000346591E664B03F5236353E9022364483C
:10488000C9000144C1E90023614B03F52363D3E967
:1048900000015BA3D3E90023FCF70AFB0346002BCE
:1048A00011D15B4B03F52363D3E900014FF0000204
:1048B000584BFBF7DFFE02460B46554901F52361D5
:1048C000C1E9002333E0524B03F5236319464FF04F
:1048D0000002504BC1E900234D4B03F51F631946FD
:1048E0004FF000024FF00003C1E9002340F229130A
:1048F000FB6119E0464AFB69DB001344D3E9000180
:10490000FB690133424ADB001344D3E90023FBF780
:10491000B1FE02460B463E48F969C9000144C1E9AF
:104920000023FB69013BFB61FB69002BE2DA384B9A
:1049300003F51E63D3E900014FF000024FF00003BE
:10494000FCF7B6FA0346002B10D0314B03F51F637A
:1049500053E902012CA3D3E90023FCF76BF90246CB
:104960000B462B4901F51E6141E90223284B03F553
:104970001F63D3E90023B969C1E902230023FB6166
:104980000FE0234AFB69DB001344D3E90023B86935
:10499000F9690231C9000144C1E90023FB6901330F
:1049A000FB61FB69B3F5957FEBDD194B03F52363E1
:1049B000D3E90023B96901F5176141E90223144BDA
:1049C00003F51E63D3E900014FF000024FF000032E
:1049D000FCF796FA0346002B1ED00D4B03F51E6321
:1049E000D3E900014FF000020A4BFBF741FE0246FB
:1049F0000B46B96901F51761C1E9002316E000BF54
:104A00000000000000B072400000000000C07240D2
:104A1000901200200000F03FBB6903F517631946B0
:104A20004FF000024FF00003C1E90023B04B93F8B0
:104A3000583A1846FBF76AFFAE4BD3E92C23012402
:104A4000FCF754FA0346002B01D100231C46E3B2C5
:104A500083F00103DBB2FB75FB7D002B0AD0A44B76
:104A600003F5236319464FF000024FF0000341E9BC
:104A700002234EE09F4BD3E928019D4B03F51E63B3
:104A800053E90223FBF7ACFF02460B4614461D46D2
:104A9000974B93F8663A1846FBF728FF02460B46F9
:104AA00020462946FBF7E4FD02460B4614461D4608
:104AB0008F4B93F8683A1846FBF718FF4FF0000247
:104AC0008D4BFBF78DFF02460B4620462946FBF730
:104AD00087FF02460B4690469946864BD3E92A4506
:104AE000834B93F8693A1846FBF700FF02460B46E2
:104AF00020462946FBF774FF02460B4640464946CE
:104B0000FCF798F802460B46794901F5236141E923
:104B100002237A4B03F53A6353E90245744B03F5DC
:104B2000236353E9020170A3D3E90023FBF758FF85
:104B300002460B4620462946FBF79CFD02460B46E3
:104B40006E4901F53A6141E902236C4B03F53A6382
:104B500053E90245664B93F8593A1846FBF7D6FEDF
:104B600002460B4620462946FCF7ACF90346002BCB
:104B70000DD05F4B93F8593A1846FBF7B7FE024643
:104B80000B465E4901F53A6141E9022331E05B4B96
:104B900003F53A6353E90245554B93F85B3A1846DF
:104BA000FBF7B4FE02460B4620462946FCF7A8F95F
:104BB0000346002B0DD04E4B93F85B3A1846FBF79B
:104BC00095FE02460B464D4901F53A6141E9022343
:104BD0000FE0FB7D002B0CD0454B93F8593A18465B
:104BE000FBF784FE02460B46444901F53A6141E970
:104BF0000223424BD3F8A83BB3F1FF3F06D03F4B13
:104C0000D3F8A83B01333D4AC2F8A83B3B4B93F88D
:104C1000AC3B002B14D1394B012283F8AC2B374B22
:104C2000022283F8AD2B354B0022C3F8A82B334B5F
:104C3000022283F8AF2B32493248FEF7E5F920E330
:104C40002E4B93F8AD3B032B00F08D81032B00F32B
:104C5000F982012B02D0022B0BD0F3E2BB1D019392
:104C6000274B0093284B294A26492948FEF752FD35
:104C700007E31F4B93F8583A022B04D01C4B93F8D0
:104C8000583A062B10D11D4B002283F8AF2B1B4B3B
:104C9000012283F8AD2B194B022283F8AE2B184961
:104CA0001848FEF735FA5DE1114B93F8583A012B9D
:104CB00004D00F4B93F8583A052B2BD10F4B002201
:104CC00083F8AF2B0D4B032283F8AD2B0B4B002247
:104CD000C3F8A82B094B022283F8B02B08490A48D5
:104CE000FEF79AFA3EE100BFFCA9F1D24D62503FB7
:104CF000901200208006002000002440001D0020AB
:104D000098280020901C0020B01C0020981C002037
:104D1000881C0020B14B93F8583A032B04D0AF4BBA
:104D200093F8583A072B10D1AD4B002283F8AF2BE4
:104D3000AB4B042283F8AD2BA94B022283F8B12B95
:104D4000A849A948FEF7DCF80CE1A54B93F8AF3B66
:104D5000012B72D1A14B03F5186319464FF00002E5
:104D60004FF00003C1E900239C4B03F51C63194677
:104D70004FF000029D4BC1E90023984B03F51B63E4
:104D800019464FF00002994BC1E90023934B03F5FC
:104D90001D6319464FF000024FF0000341E9022362
:104DA0008E4B03F5196319464FF000024FF00003D4
:104DB000C1E90023894B03F51B6319464FF000023C
:104DC0004FF0000341E90223844B03F51D631946AC
:104DD0004FF000024FF00003C1E900237F4B03F5C1
:104DE0001C6319464FF000024FF0000341E9022313
:104DF0007B4BD3F8A84B794B03F5206313ED027B73
:104E0000B0EE470AF0EE670A06F002F953EC102BF9
:104E100010461946FCF7BCF803469C42C0F01D82C0
:104E20006F4B0022C3F8A82B6D4B022283F8AF2BE7
:104E30006C496F48FEF7E8F80FE2684B03F51C6316
:104E400019464FF00002694BC1E90023634B03F59B
:104E50001C6319464FF000024FF0000341E90223A2
:104E60005E4B03F5196319464FF000024FF0000343
:104E7000C1E90023594B03F51B6319464FF00002AB
:104E80004FF0000341E90223544B03F51B6319461D
:104E90004FF000024FF00003C1E900234F4B03F530
:104EA0001D6319464FF00002504B41E902234B4B62
:104EB00003F51D6319464FF000024FF00003C1E9EE
:104EC0000023464B03F5186319464FF00002474B89
:104ED000C1E90023424BD3F8A84B414B03F53A6399
:104EE00093ED007BB0EE470AF0EE670A06F090F80B
:104EF00053EC102B10461946FCF74AF803469C4227
:104F0000C0F0AB81364B0022C3F8A82B344B0122F2
:104F100083F8AF2B314B03F51A6319464FF00002AB
:104F20004FF0000341E902232C4B03F518631946A7
:104F30004FF000024FF00003C1E90023274B03F5B7
:104F40001B6319464FF00002284BC1E90023234B95
:104F500003F51D6319464FF000024FF0000341E9CD
:104F600002237AE179E11D4B93F8583A002B04D0E3
:104F70001A4B93F8583A042B14D1194B002283F89A
:104F8000B02B174B022283F8AD2B154B0022C3F830
:104F9000A82B134B022283F8AF2B12491448FEF7BB
:104FA00033F84EE10D4B93F8583A032B04D00B4BDA
:104FB00093F8583A072B1DD1094B002283F8B02BE8
:104FC000074B042283F8AD2B054B022283F8B12B4B
:104FD00004490548FDF794FF33E100BF901200201B
:104FE000001D002098280020B01C00200000F03F89
:104FF000901C00209A4B93F8583A022B04D0984BFF
:1050000093F8583A062B10D1964B002283F8B02B18
:10501000944B012283F8AD2B924B022283F8AE2BE6
:1050200091499248FEF774F80BE18E4B93F8B03B30
:10503000012B72D18A4B03F5186319464FF0000219
:105040004FF00003C1E90023854B03F51C631946AB
:105050004FF00002864BC1E90023814B03F51B632F
:1050600019464FF000024FF00003C1E900237C4BCA
:1050700003F51D6319464FF000024FF0000341E9AC
:105080000223774B03F5196319464FF000024FF0E6
:105090000003C1E90023724B03F51B6319464FF06F
:1050A00000024FF0000341E902236D4B03F51D633D
:1050B00019464FF000024FF00003C1E90023684B8E
:1050C00003F51C6319464FF00002694B41E90223C6
:1050D000644BD3F8A84B624B03F5216393ED007B3F
:1050E000B0EE470AF0EE670A05F092FF53EC102B82
:1050F00010461946FBF74CFF03469C42C0F0C080A7
:10510000584B0022C3F8A82B564B022283F8B02B31
:1051100055495848FEF780F8B2E0514B03F51C633F
:1051200019464FF00002524BC1E900234C4B03F5E6
:105130001C6319464FF000024FF0000341E90223BF
:10514000474B03F5196319464FF000024FF0000377
:10515000C1E90023424B03F51B6319464FF00002DF
:105160004FF0000341E902233D4B03F51B63194651
:105170004FF000024FF00003C1E90023384B03F564
:105180001D6319464FF000024FF0000341E902236E
:10519000334B03F51D6319464FF00002344BC1E950
:1051A00000232F4B03F5186319464FF00002304BD4
:1051B000C1E900232B4BD3F8A84B2A4B03F53A63E4
:1051C00093ED007BB0EE470AF0EE670A05F020FF92
:1051D00053EC102B10461946FBF7DAFE03469C42AF
:1051E0004ED3204B0022C3F8A82B1E4B012283F87C
:1051F000B02B1B4B03F51A6319464FF000024FF01A
:10520000000341E90223164B03F5186319464FF0DA
:1052100000024FF00003C1E90023114B03F51D63A9
:1052200019464FF000024FF00003C1E900230C4B78
:1052300003F51C6319464FF000020D4B41E90223B0
:105240001EE01DE07B1D0193074B0093094B0A4AAA
:105250000A490648FEF762F813E000BF11E000BFFC
:1052600090120020001D002098280020901C002093
:105270000000F03FB01C0020A81C0020A01C002053
:1052800000BF8C4BD3F81C4B8B4B03F51863D3E951
:10529000000101231D464FF000024FF00003FBF711
:1052A00007FE0346002B01D000231D46EBB2194632
:1052B0002046FCF721FA7F4BD3F8583B7E4A02F593
:1052C000196212ED027BB0EE470AF0EE670A18464B
:1052D000FCF770FB774BD3F8084B774B03F519635A
:1052E000D3E9000101231D464FF000024FF00003F7
:1052F000FBF7DEFD0346002B01D000231D46EBB279
:1053000019462046FCF7F8F96A4BD3F8803B6A4A05
:1053100002F51A6212ED027BB0EE470AF0EE670A60
:105320001846FCF747FB634BD3F86C3B624A02F527
:105330001A6292ED007BB0EE470AF0EE670A18465B
:10534000FCF738FB5B4BD3F8CC4A5B4B03F51B6394
:1053500053E9020101231D464FF000024FF0000304
:10536000FBF7A6FD0346002B01D000231D46EBB240
:1053700019462046FCF7C0F94E4BD3F8B84A4E4BBD
:1053800003F51B63D3E9000101231D464FF0000222
:105390004FF00003FBF78CFD0346002B01D00023E8
:1053A0001D46EBB219462046FCF7A6F9414BD3F84F
:1053B000A44A414B03F51C6353E9020101231D4636
:1053C0004FF000024FF00003FBF772FD0346002B85
:1053D00001D000231D46EBB219462046FCF78CF99C
:1053E000344BD3F8444B344B03F51C63D3E9000131
:1053F00001231D464FF000024FF00003FBF758FD5C
:105400000346002B01D000231D46EBB2194620466F
:10541000FCF772F9274BD3F8304B274B03F51D638C
:1054200053E9020101231D464FF000024FF0000333
:10543000FBF73EFD0346002B01D000231D46EBB2D7
:1054400019462046FCF758F91A4BD3F8F44A1A4B80
:1054500003F51D63D3E9000101231D464FF000024F
:105460004FF00003FBF724FD0346002B01D000237F
:105470001D46EBB219462046FCF73EF90D4BD3F81A
:10548000E03A0D4A92F86A2A11461846FCF734F9B8
:10549000084BD3F8903A084A92F86B2A11461846FE
:1054A000FCF72AF900BF2037BD46BDEC028BBDE8F2
:1054B000B08300BF001D00209012002000000000FB
:1054C00080B582B000AF6E4BD3E92E236D4901F554
:1054D0003A6141E9022300F097FC6B4B012283F80B
:1054E0006A2A684B002283F8402A654BD3E90223DD
:1054F000644901F5266141E90223624B0122C3F8A8
:10550000442A00210020FCF74FF803465D4AC2F808
:10551000503A5C4B012283F8482A5A4B002283F808
:10552000202A574BD3E90423564901F5246141E968
:105530000223544B0122C3F8242A00210120FCF746
:1055400033F803464F4AC2F8303A4E4B012283F8F3
:10555000282A4C4B0022C3F8642A4A4B002283F8C5
:10556000602A474BD3E90623464901F5286141E902
:1055700002234648FEF7CAFA424B002283F8002A6B
:105580003F4BD3E900233F4901F5226141E9022362
:105590003C4B0122C3F8042A1020FCF769FA0346A9
:1055A000384AC2F8103A374BD3F8103A002200219B
:1055B0001846FCF7B1FA334B012283F8082A314B25
:1055C000002283F8E0292E4BD3E908232D4901F569
:1055D000206141E902232B4B0122C3F8E429112069
:1055E000FCF746FA0346274AC2F8F039254BD3F8B0
:1055F000F039002200211846FCF78EFA214B0122D7
:1056000083F8E8291F4B0022C3F8B4291D4B002260
:10561000C3F8CC291B4B002283F8C829194B002260
:1056200083F8B029164BD3E90C23164901F51C6108
:10563000C1E900231648FEF793FA124B00225A6084
:10564000104B4FF0FF321A630E4B4FF0FF325A638C
:105650000C4B00221A700B48FEF726FB094BDB6A45
:105660003B603B681B68012B39D139684FF0000261
:105670004FF00003C1E9022300237B6018E000BF64
:1056800080060020001D00209012002060270020CE
:10569000B02600203A687B680233DB00D1184FF057
:1056A00000024FF00003C1E900237B6801337B60F7
:1056B0007B68B3F5957FEDDD3B6803F5176319460D
:1056C0004FF000029C4B41E902233B6803F517634E
:1056D00019464FF000024FF00003C1E90023974B39
:1056E000002283F80C2B954B0122C3F8102B0121CB
:1056F0000220FBF759FF0346904AC2F81C3B8F4B30
:10570000012283F8142B8D4B002283F8482B8B4BFE
:105710000122C3F84C2B9FED841B9FED850B0320CA
:10572000FCF78CF80346854AC2F8583B834BD3F804
:10573000583B1846FCF734F9804B012283F8502B74
:105740007E4B002283F8F82A7C4B0122C3F8FC2A06
:1057500001210420FBF728FF0346784AC2F8083BE2
:10576000764B012283F8002B744B002283F8702BB8
:10577000724B0122C3F8742B9FED6B1B9FED6C0BDA
:105780000520FCF75BF803466C4AC2F8803B6B4B84
:10579000D3F8803B1846FCF703F9684B012283F8E5
:1057A000782B664B002283F85C2B644B0122C3F8F4
:1057B000602B9FED5D1B9FED5E0B0620FCF73EF816
:1057C00003465E4AC2F86C3B5C4BD3F86C3B184610
:1057D000FCF7E6F8594B012283F8642B574B002263
:1057E00083F8BC2A554B0122C3F8C02A01210720A7
:1057F000FBF7DAFE0346514AC2F8CC3A4F4B01227E
:1058000083F8C42A4D4B002283F8A82A4B4B01226F
:10581000C3F8AC2A01210820FBF7C6FE0346474A1D
:10582000C2F8B83A454B012283F8B02A434B002214
:1058300083F8942A414B0122C3F8982A01210920B8
:10584000FBF7B2FE03463D4AC2F8A43A3B4B0122A5
:1058500083F89C2A394B002283F8342B374B0122E2
:10586000C3F8382B01210A20FBF79EFE0346334A7A
:10587000C2F8443B314B012283F83C2B2F4B0022D2
:1058800083F8202B2D4B0122C3F8242B01210B2060
:10589000FBF78AFE0346294AC2F8303B274B012218
:1058A00083F8282B254B002283F8E42A234B01227E
:1058B000C3F8E82A01210C20FBF776FE03461F4AB5
:1058C000C2F8F43A1D4B012283F8EC2A1B4B00224C
:1058D00083F8D02A194B0122C3F8D42A01210D20C4
:1058E000FBF762FE0346154AC2F8E03A134B012269
:1058F00083F8D82A114B002283F8802A0F4B01220B
:10590000C3F8842A01212B20FBF74EFE03460B4AE5
:10591000C2F8903A094B012283F8882A00BF083761
:10592000BD4680BDAFF30080000000000000000015
:105930000000000000409F400000F03F001D0020DC
:1059400080B582B000AFAC4B93F8403A002B13D136
:10595000A94B012283F8402AA74BD3F8443A012BE4
:105960000AD1A54B93F8483A002B05D0A24BD3F8A7
:10597000503A1846FBF7FFFE9F4B93F8203A002B56
:1059800013D19D4B012283F8202A9B4BD3F8243A54
:10599000012B0AD1984B93F8283A002B05D0964B4F
:1059A000D3F8303A1846FBF7E6FE934B93F8603A8B
:1059B000002B13D1904B012283F8602A8E4BD3F831
:1059C000643A012B0AD18C4B93F8683A002B05D02E
:1059D000894BD3F8703A1846FCF70AFD864B93F8CA
:1059E000003A002B19D1844B012283F8002A824B04
:1059F000D3F8043A012B10D17F4B93F8083A002BCF
:105A00000BD07D4BD3F8103A1846FCF7FBF87A4BD5
:105A1000D3F8103A1846FCF7FFF8774B93F8E039C3
:105A2000002B19D1744B012283F8E029724BD3F873
:105A3000E439012B10D1704B93F8E839002B0BD0CF
:105A40006D4BD3F8F0391846FCF7DCF86A4BD3F805
:105A5000F0391846FCF7E0F800F0D2FA664B93F8FC
:105A6000B039002B13D1644B012283F8B029624B6B
:105A7000D3F8B439012B0AD15F4B93F8B839002B16
:105A800005D05D4BD3F8D8391846FDF7B2F95B4B1A
:105A90007B607B681B78002B09D17B6801221A7020
:105AA0007B685B68012B02D17B6802225A60524BF3
:105AB0001B78002B1CD1504B01221A704E4B5B6897
:105AC000012B15D14C4B1B7A002B11D04A4BDB6AB2
:105AD0003B603B681B68012B02D13B6802221A60C5
:105AE000454B4FF0FF321A63434B4FF0FF325A637E
:105AF000414B93F80C3B002B13D13F4B012283F811
:105B00000C2B3D4BD3F8103B012B0AD13A4B93F8A9
:105B1000143B002B05D0384BD3F81C3B1846FBF741
:105B20002AFE354B93F8483B002B19D1324B01220A
:105B300083F8482B304BD3F84C3B012B10D12E4B24
:105B400093F8503B002B0BD02B4BD3F8583B184607
:105B5000FBF76EFF284BD3F8583B1846FBF77EFF48
:105B6000254B93F8F83A002B13D1234B012283F8ED
:105B7000F82A214BD3F8FC3A012B0AD11E4B93F89B
:105B8000003B002B05D01C4BD3F8083B1846FBF715
:105B9000F2FD194B93F8703B002B19D1164B0122E3
:105BA00083F8702B144BD3F8743B012B10D1124B9C
:105BB00093F8783B002B0BD00F4BD3F8803B184663
:105BC000FBF736FF0C4BD3F8803B1846FBF746FF3C
:105BD000094B93F85C3B002B1ED1074B012283F845
:105BE0005C2B054BD3F8603B012B15D1024B93F88E
:105BF000643B002B10D003E0001D0020C8260020CD
:105C00006B4BD3F86C3B1846FBF712FF684BD3F88D
:105C10006C3B1846FBF722FF654B93F8BC3A002B10
:105C200013D1634B012283F8BC2A614BD3F8C03AED
:105C3000012B0AD15E4B93F8C43A002B05D05C4B84
:105C4000D3F8CC3A1846FBF796FD594B93F8A83A8F
:105C5000002B13D1564B012283F8A82A544BD3F8BA
:105C6000AC3A012B0AD1524B93F8B03A002B05D035
:105C70004F4BD3F8B83A1846FBF77DFD4C4B93F8E1
:105C8000943A002B13D14A4B012283F8942A484BB3
:105C9000D3F8983A012B0AD1454B93F89C3A002B44
:105CA00005D0434BD3F8A43A1846FBF764FD404BAC
:105CB00093F8343B002B13D13D4B012283F8342B56
:105CC0003B4BD3F8383B012B0AD1394B93F83C3B83
:105CD000002B05D0364BD3F8443B1846FBF74BFD61
:105CE000334B93F8203B002B13D1314B012283F827
:105CF000202B2F4BD3F8243B012B0AD12C4B93F8AC
:105D0000283B002B05D02A4BD3F8303B1846FBF735
:105D100032FD274B93F8E43A002B13D1244B012298
:105D200083F8E42A224BD3F8E83A012B0AD1204B1E
